:020000040800F2
:10000000C8140020D5000008D93B00089D1B00083B
:1000100000000000000000000000000000000000E0
:10002000000000000000000000000000F345000890
:100030000000000000000000F1450008F545000840
:10004000E700000800000000E7000008E7000008E3
:10005000E7000008E7000008E7000008E1080008E2
:1000600000000000E7000008E7000008E7000008C3
:10007000E7000008E7000008E700000800000000B3
:10008000E70000080000000000000000E700000892
:1000900000000000E7000008E7000008A11B0008BE
:1000A00000000000E70000080000000059470008B9
:1000B0006947000800000000000000000000000088
:1000C0000348854600F03EF800480047E54C00082C
:1000D000C81400200448804704480047FEE7FEE7B4
:1000E000FEE7FEE7FEE7FEE701460008C100000864
:1000F000421E5378521C002BFBD10B781370491C05
:10010000521C002BF9D17047421C0178401C002979
:10011000FBD1801A704710B5002200E0521C835CAE
:100120008C5CA34201D1002BF8D1D8B2E1B2401AC5
:1001300010BD03460A780270401C491C002AF9D100
:1001400018467047064C0125064E05E0E36807CCCB
:100150002B430C3C98471034B442F7D3FFF7B4FF5D
:10016000A87E0008C87E000830B50B460146002076
:100170002022012409E00D46D5409D4205D31D46AD
:100180009540491B2546954040191546521E002DA5
:10019000F1DC30BD70B500242546002801DA0124C9
:1001A0004042002901DA01254942FFF7DDFFAC4258
:1001B00000D04042002C00D0494270BDF0B51FB4C1
:1001C00086B000200090019002900698069980B2B7
:1001D00004900798090C02040014114307900027AB
:1001E000089D099806913E463C4603900398A9B2A3
:1001F0000204000C039004982D0C15434843002181
:10020000224600F065F9C719714110340E46402CA2
:10021000ECDB3846029A00F05BF9009A019B8018EB
:100220000090594102980191103002904028CCDB97
:1002300000980BB0F0BD03460B439B0703D009E0C9
:1002400008C9121F08C0042AFAD203E00B78037011
:10025000401C491C521EF9D27047D2B201E0027014
:10026000401C491EFBD270470022F6E710B513462A
:100270000A4604461946FFF7F0FF204610BDF8B5C0
:1002800002464A40D40F42004B0052085B089A4293
:1002900002D20246084611464A0023D0C30D4A0046
:1002A000DDB2120EAD1A202D35DA49020126490AB7
:1002B000F6058A19002C00D0524220214F1B11460E
:1002C000B9402A411018C20D9A4221D0002C17D0F3
:1002D000012D08DCDA05801AD20F8019D207DBB2B3
:1002E00000F00EF9F8BDDA05801A012340001B0664
:1002F000C01880185A428018CA0F1043490007E0FE
:100300004908C2071143DA05801A8019400880188D
:1003100000F0EEF8F8BD61000122511A001BF7E76A
:100320000122D2075140AAE70122D2075040A6E796
:10033000024670B54A40D30FDB0740002DD04A007B
:100340002AD0010E140E000212020919400A520AA4
:100350008418E50104465443000A120A2E0450434F
:10036000A4194219200CC543AA18120C0125AD038B
:10037000521C521912047F39240400D0521C10431D
:1003800001D44000491EC2B20C06C0092018401C0E
:100390004008802A02D003E0002070BD40084000E1
:1003A000002900DA0020184370BD70B502464A40AB
:1003B000D50F40004A00ED0740085208002814D02D
:1003C000002A12D0C40DD30D41020120C0055202F3
:1003D000490A520AE41A091812187D34914201D3CD
:1003E000641C00E04900002C01DA002070BD0023ED
:1003F000914201D3891A0343400849000028F7D1EC
:1004000000290AD0914202D10121C90705E0914299
:1004100001D2012101E00121C943E005C0184019C2
:1004200000F066F870BD0122D207002800DB101A28
:10043000002900DB511A814201D2012070470020BF
:1004400070470122D207002800DB101A002900DBC8
:10045000511A814201D301207047002070470122C8
:10046000D207002800DB101A002900DB511A814254
:1004700001D90120704700207047C217C10F5040BA
:1004800010B54018CA079623002100F039F810BDB6
:1004900010B500229623114600F032F810BDC20FAD
:1004A000410040020123400ADB05D207090EC018B3
:1004B0007F2901DA00207047962903DC9623591A18
:1004C000C84001E096398840002AF4D04042704785
:1004D00010B5202A04DB0146203A9140002010BDCF
:1004E000914020239C1A0346E3401943904010BDDD
:1004F000002904DA401C490001D14008400070473F
:1005000070B40024050C05D11024000402D1002988
:1005100021D01124050E01D100020834050F01D1AC
:100520000001241D850F01D18000A41C002801DBDF
:100530004000641C002908D020252E1B0D46F540E4
:10054000A14000D001212943084301061B1B000ADA
:10055000DB1D02D5002070BC7047DB051818801821
:100560000029F8DA401C4900F5D170BC4008400071
:1005700070470000F0B587B015460E460446901E41
:10058000C1B2022904D840B2800041A1085800E05D
:1005900001200390002730463946FFF752FF00281C
:1005A00007D12D2020700120C00746400296641C10
:1005B00000E00296039E30460396FFF75EFF014679
:1005C0000298FFF7B5FE3F210906FFF758FEFFF737
:1005D00066FF01903146FFF7DDFD06460398704344
:1005E00003900920C043002E029016D0012E24DB78
:1005F0000A213046FFF7B8FD0299414371183022B5
:100600000A43F9B204AB5A547F1C092E0646EFD8B0
:100610003806039B019E06D111E004A83021017029
:100620000127039B019EF8B2401EC1B204AA525C8E
:100630002270641C0029F7D101E0039B019EF61A89
:100640002E200194207004A8029F381809300390CE
:100650002C460A213046FFF787FD39464143711881
:1006600030220A4303990A55611EE2B2012A0C4660
:100670000646EED10198401C04A90A780270491C74
:100680006D1E401C002DF8D10021017007B0F0BD97
:1006900064000000E803000010270000B0B56228E5
:1006A00006DC43281BD0532808D0582835D0B0BDCD
:1006B000632814D0782830D07328F8D100F0C0F81F
:1006C00057485849016041608160C1600021017450
:1006D000594A062939D0535C4354491CF9E7254847
:1006E00000780028E3D0244D2878002400282046F4
:1006F00001D0224800682249086022482021FFF7E3
:10070000B3FD1E4804602C701F4804601F4804702D
:100710001F48012101701FA028E000F085FD6949F4
:1007200000200880654908703D493E4A0A604A60D9
:100730008A60CA600874624A1268D0633A4A07281D
:100740000CD0135C0B54401CF9E77D2000013749A5
:100750000968081836490860384807E07D2000011C
:1007600032490968081832490860324806F01CFD11
:10077000B0BDC0463E0000205002002054000020C2
:100780002C020020300200205402002051020020E0
:100790003D00002052452D43414C2E2E2E0D0A00C7
:1007A000B0B57D200401454D287800281DD000F00B
:1007B0003BFD44490020088028701949194A0A6005
:1007C0004A608A60CA6008743D4A1268D063164A5B
:1007D000072803D0135C0B54401CF9E7134800684A
:1007E000001913490860134816E000F029F80C4876
:1007F0000C49016041608160C160002101740E4AB2
:10080000062903D0535C4354491CF9E707480068A4
:10081000001907490860094806F0C6FCB0BDC0468B
:10082000E803002020202020D57D00089C0C00201B
:10083000FC030020977C0008FD7D00086B7C00080D
:1008400010B51E480178002900D010BD1C4A11685F
:100850007D23DB00CB631B4C23804023D45C012C25
:1008600029D10224D454012213020C6A9C430C6245
:100870000C6A1C430C62144B994204DC154B9942E0
:100880000ED0154B03E0114B994202D0104B994208
:100890000ED1D3034C6C1C434C640F4B994207D1CF
:1008A0008C680E4B2340062B05D01404A34202D0C3
:1008B0000B6813430B600121017010BD460000203E
:1008C000B400002044000020FF43014000480140E4
:1008D0000044014000040040002C014007000100DA
:1008E00007480168490604D54021016005490122F5
:1008F0000A704168490601D5402141607047C046F1
:100900000C1802405100002070B52521415C0229DD
:100910002CD10146243103681A680E24A2431A60C0
:100920001C68012294431C60446C2568124B1D40D6
:100930002560046C1C2525401446AC400F4D2E68E4
:1009400026432E60846CC56C6560046D002C05D058
:1009500025681D402560436D846D5C6000240C702B
:100960004A70816B002904D0884702E00421C163EA
:100970000124204670BDC046FFFEFFFF0400024078
:10098000F0B58AB007900A68002A00D1C2E0624838
:10099000079B834201D0062000E00520009001243F
:1009A0000020099008900690029425460491681E44
:1009B000029F059087403A4000D19BE003924E6829
:1009C00010203043122816D11C20089908400F2609
:1009D00031468140059AD2089200079B9A18136A03
:1009E0008B4304992C460D693540049985401D437D
:1009F000156225464E68032230461040099B9840F8
:100A000001929A40079C2368934303432360D34396
:100A1000122E1AD80120B040424A104213D0079C2F
:100A2000A0681840CA6829461D46099B9A402B4673
:100A30000D4604990243A2603009059A904062680D
:100A4000BA4302436260032E54D0079CE06818400A
:100A50008A68099B9A400243E260F0004AD5182157
:100A6000069801400F208840059B019A93432B4A2A
:100A7000D618346E8443603605200007079B8342F6
:100A80000AD02948079B834208D02848079B834205
:100A9000009F04D1022702E0002700E001278F40D9
:100AA000274337601E4F3E6804984168C80302D54B
:100AB0000398064301E0039886433E607E688803FE
:100AC00002D50398064301E0039886437E601668CA
:100AD000C80202D50398064301E0039886431660D6
:100AE0005668880202D50398064301E003988643BE
:100AF000566004990A681046E840089B1B1D08933D
:100B0000099B9B1C0993069B083306936D1C0028C8
:100B100000D04CE70AB0F0BD0014005000180240AD
:100B20008018024006000600000400500008005033
:100B3000F0B52849884200D0F0BD274B187801282D
:100B4000FAD12648017800292AD0002101702448D2
:100B500005784126C44A905D20281CD1106884691C
:100B6000240418D44024175D012F14D02223935558
:100B700042231026D6540123135551645585444B06
:100B8000D362184B5362444B5363538DFF2B0FD9E1
:100B9000154DFF230EE0164802220270154801E0B1
:100BA0001348012101701448002101701970F0BD33
:100BB000538D0E4D115513854168AC4A0A402A43A6
:100BC000D9B20904114341600168F4220A4302606A
:100BD000F0BDC0460054004029020020950C0020C2
:100BE000900C0020920C0020802400018024000240
:100BF000520200203E00002028020020F0B50146ED
:100C00004125994B5A5D0220202A40D11A689469E7
:100C100024043CD440241E5D012E38D02120585598
:100C2000422010251D540120185500205864598574
:100C30001749D962174E5E6217495963598D090ADF
:100C400003D0FF271F85164905E05F8D1F851349D7
:100C5000002F10D08031357895625D8D6D1E5D85D9
:100C6000751C5D627D1E1D85FDB22E040E4351680C
:100C70007E4D294004E055687C4E354080262E4349
:100C80001855314351601168F2230B431360F0BDD6
:100C90000000FFFF960C0020C51F00080020000286
:100CA00080200001F0B587B00F46064641216E4B0B
:100CB000585C0224202845D1002F40D01546002A38
:100CC0003DD04022985C01283CD0049101249C54E2
:100CD000BF480368E003059219222146069301F0FC
:100CE00059FC00282ED1212004995F4A50544220FB
:100CF00003900599115400205064558557620546AC
:100D0000506310684168594A0A4059495118416076
:100D1000069F384601F07CFC00280CD13B46524827
:100D20000068F1B28162802000276422394601F018
:100D300031FC002809D04C480599455402E00124B3
:100D400060025864204607B0F0BD01246206464E9A
:100D5000708D000A474B48490197029207D03068CE
:100D60000A4641681140071DFF201A4607E0708DB2
:100D700035686B680B40C1B2090419432F1D0A4343
:100D800078252A433A60308533461E46069801F09E
:100D90003FFC0028D6D133463068716A0A788262F7
:100DA000728D521E7285491C7162318D4A1E3285C8
:100DB000718D120424D1002922D0802000216422C8
:100DC000069B01F0E7FB0028BCD13346708D000A7A
:100DD00007D0FF20188518684168274A1140254A26
:100DE0000BE0598D1985186842682F46224D2A401C
:100DF0003D46C9B209041143029A0A432A4342609C
:100E0000598D0029C1D181698906714D069F10D481
:100E10006420394601F058F8002893D12868C11B96
:100E20003068652902D38169890610D581698906F0
:100E3000EED52021C1614268104B134043600498F5
:100E400031540598019C3454039834547AE732465F
:100E5000706C202108437064049831540020059977
:100E60007054039970546DE760000020009800FCF6
:100E7000782001010000FF01009C00FC00E800FE5A
:100E800070B50446624800687D21C900FFF76CF91F
:100E9000421E0120110E17D10C490D4D6A600D4AFA
:100EA00013680B400326B6079B1913600023AB6041
:100EB00007262E60032C07D810680840A1074018A9
:100EC000106005480460184670BDC046FFFFFF0073
:100ED00010E000E020ED00E020000020F0B584B03C
:100EE00003685906CD4A01D4002135E001252C07BD
:100EF0001168C900009402D50021019107E0116832
:100F00002143116011682140039103990195032148
:100F10000E02146A3440866902960FD0029EB442D3
:100F20000AD0146A2D04176A2F431762176AAF4359
:100F30001762264D2C401462E4073CD1116A234C01
:100F40002140029C214311620021019C002C03D00E
:100F50001468009DAC431460DC0705D09469032538
:100F6000AC438568254395619C0706D5032424037B
:100F70009569A543C4682C4394619C0606D5032457
:100F8000A4079569A54344692C4394615C0706D581
:100F90000324A4039569A54304692C4394611B06AB
:100FA00006D53C3A1368E024A34340681843106018
:100FB000084604B0F0BD064C2568064F166AB60711
:100FC000BCD42668761BBE42F8D9BEE7FFFCFFFF03
:100FD0009C0C00208813000080B500F02BF80A4913
:100FE0000A6892093C231340084AD2581F231A402A
:100FF000D040074A10600968890A1C220A4005A1EE
:1010000089581940C84080BD08100240B8720008D5
:1010100000000020000000000000000000000000B0
:1010200000000000010000000200000003000000BA
:1010300004000000114801688906490F06D00268C3
:1010400038210A40082A08D10D487047083800683E
:101050008004410F0B48C840704702680A40202AAC
:1010600002D10120C003704700680840182801D051
:10107000002070477D2000027047C04608100240E3
:1010800000127A00006CDC02F0B582B03C237C4A8E
:10109000D15C012901D1022149E001210193D15400
:1010A0001268146A0D02166AAE4316624D02AC4312
:1010B00085682F0227435668D4691E4D2540046871
:1010C000714B9A420BD18B020094146A9C431462B8
:1010D000009CC9028F43C168090239430F4625436A
:1010E00069498A42019B05D068498A4202D0684911
:1010F0008A4208D1032109038E43416984690901A9
:10110000314326010E4300215D4CE1545660D56108
:101110004368D3631762D36908241C43D461D3693D
:101120000424A343D3610069D3690343D361084610
:1011300002B0F0BD8CFFFEFFB0B581B03D2050493C
:101140000A5C002A01D00A6810E03C2200238B547C
:101150000A68314B9A4209D1304A146802252C435F
:10116000146012682A400092009A1A4602230B5417
:101170001568454B9A4202D0274CA24204D17024F4
:10118000A5438C682C4300E02C46254DAA4206DD81
:101190009A420AD03D4DAA4207D03D4D03E01E4D74
:1011A000AA4202D01F4DAA4234D103252D02AC43DE
:1011B0000D692543CC68D4624C6894628024A543B1
:1011C0008C692C439A4205D0304B9A4202D0304B66
:1011D0009A4201D14B691363136804251D431560BE
:1011E00001235361BFF34F8F146048228B543E227A
:1011F0008B540A463E3253709370D37013715371FF
:1012000044228B540A46443253709370D3700B546B
:1012100001B0B0BD2546CDE7000400403C100240BF
:10122000FF2B014000200040B0B50120030214490B
:101230000A68146A9C431462136A1362114B124CBD
:10124000A24205D0114CA24202D0114CA2420AD1B6
:10125000146A1C4207D1146A0E4D2C4203D1C403F8
:10126000556CA5435564146A1C4206D1136A094C97
:10127000234202D113688343136040228854B0BDD7
:10128000B400002011111100002C01400048014061
:101290000044014044040000F0B589B004460068F1
:1012A000C16920220126F7023B462F330B40056817
:1012B00008945C34069405908068202B079604926D
:1012C00012D1044628461040330723401818204600
:1012D0002A46089C0F4600D19BE0616F002900D18F
:1012E00086E12046884783E103970F3739422A4633
:1012F000089C0F4600D18CE0BE4B1340079E31077F
:101300004E1C0640F31800D183E00291FB07079DB5
:10131000059907D02B02134004D00D62069C636B25
:101320002B43636303462B40BD070BD5002B09D02D
:1013300002250D62069C616B0191042501990D4304
:10134000059965637D0708D5002B06D004230B6241
:10135000069B5C6B022525435D6304463B070CD569
:1013600013461546049A13402A461E4305D0082307
:101370000B62069E756B1D43756303980742069EBC
:101380000AD0079B9B06134006D00862706B134679
:10139000049A10431A467063706B0028089D00D1B0
:1013A00026E1049807400AD0024002980440144302
:1013B00005D06A6F002A02D0284690472968706BD2
:1013C00028220240886840242040801800D106E18D
:1013D000284603F047F928688068400600D407E1F2
:1013E000EFF31080079981F3108829688A68A24377
:1013F0008A6080F31088706A002800D1F8E07E4986
:101400008163FFF781FA002800D1F1E0706A816BF7
:1014100068E7054610463840C306E36E3CD5012B0D
:101420003AD125461020059C2062A16849063FD488
:10143000069E718832887388002B00D1D8E08A42DA
:1014400000D1D5E0EFF31081079F87F310886B4A36
:10145000203A2B681C6814401C6081F31088EFF35D
:10146000108187F310882A689368664C1C4094604A
:1014700081F310880499316300216967E966EFF30D
:10148000108187F310882A6813688343136081F3FF
:10149000108802202867ABE0FB02079E00D479E0A9
:1014A000B3052B4000D175E03005059908629FE037
:1014B000069E3288716A09684B689CB2002C00D184
:1014C00087E0944200D384E073800968890600D5E0
:1014D0008BE0EFF31082079981F310882B682F4679
:1014E0001C68464D2C401C6082F31088EFF310827C
:1014F00081F310883B689C688C439C6082F3108861
:10150000EFF3108281F310883B689C684025AC4360
:101510009C6082F31088049A32630022FA66EFF32B
:10152000108381F310883C682568854325603D461B
:1015300083F31088736A002B57D018462430447800
:10154000022C4FD11C6825680E26B54325605D6CC2
:101550002E682A490E402E602568079EB5432560F7
:101560001C6C1C2525403446AC40254D2E68264376
:101570002E609C6CDD6C65601C6D002C05D02568B0
:101580000D402560596D9B6D4B60079941703D463C
:10159000069E29E0390607D580210A40F1050D4055
:1015A000A91801D0A16F99E621464006069C1FD5D7
:1015B000EFF3108086F310880D4609680A6840230F
:1015C0009A430A6080F310880020A8670498E062BC
:1015D0000EE0A2420CD10868800609D559E7002028
:1015E000706305E00421D9630270022028677088C7
:1015F00009B0F0BD2001000461460008FFFEFFFFB6
:1016000004000240FEFFFFEFF0B591B0002821D0AA
:10161000044607466837386A00285ED100263E77C0
:101620000CA81421FEF720FE05A81C252946FEF76C
:101630001BFE2068D84988420ED0D84988424CD138
:1016400007960125059505A8FFF748FC002817D047
:1016500072B6FEE701259CE101204104D04A93685F
:101660000B43936093680B40049304991168014302
:1016700011601168014004910C210C91049913E050
:10168000A803C749CA680243CA60CA6802400492F4
:1016900004980868284308600868284004900320DC
:1016A0000C9004981B25042010900F960E96022093
:1016B0000D90052000070CA9FFF762F9A807C00EDE
:1016C000FF218140B74828180322904302688A43CB
:1016D00002600120A840B4490860242038622068D4
:1016E00001680125A9430160A16A002948D00A07C1
:1016F00005D5EA0343689343A26B1A434260CA07C5
:1017000005D06A0443689343E26A1A4342608A0739
:1017100005D52A0443689343226B1A4342604A0763
:1017200005D5AA0443689343626B1A434260CA0614
:1017300005D52A0383689343E26B1A4382608A06C5
:1017400005D56A0383689343226C1A4382604A0674
:101750000ED52A0543689343666C33434360964233
:1017600006D10322520543689343A26C1A43426098
:10177000090605D5E90442688A43E16C11434160DA
:1017800001688A4A0A40A16823690B4366691E43BF
:10179000E1690E4316430660032203921203436875
:1017A0009343E2681A434260A269236A1343826842
:1017B0007F4E16401E438660C26A0F239A43666AB4
:1017C0003243C262744A904209D0744A904208D1AE
:1017D0007348006A8007000F76A2125802E00022C8
:1017E00000E01022E80381420ED1082A00D968E007
:1017F0007A44127952009744046415641F64646447
:101800002400FFF7E9FB19E0082A5AD87A44127934
:1018100052009744045630563A5656563F00FFF74A
:10182000DBFB34E05E48343800680006400F411CA2
:101830006448FEF799FC04E0FFF7FCFB002846D063
:10184000666A7100604A515AFEF78EFC400061687A
:101850004A081018FEF788FC0246103A5B498A4293
:101860002FD25B4A3A6000226267A26701400007FC
:10187000400F084322E04A48343800680006400F11
:10188000411C5048FEF770FC04E0FFF7D3FB002832
:101890001DD0666A71004C4A515AFEF765FC6168BA
:1018A0004A081018FEF760FC01461039474A914279
:1018B00007D24749396000216167A1672168C86084
:1018C0000AE04348386000206067A06761E0404854
:1018D000386000206067A0673B4609200190C10284
:1018E000206842688A43426081682A22914381606D
:1018F000016829430160002702939F62A5490E6891
:101900000168090717D56905324B2046324602F0B7
:10191000D9FE00280ED0EFF3108085F310882168DF
:101920000A6880239A430A6080F310882020029975
:10193000086224E020680068400722D5A905254BED
:101940002046324602F0BEFE00281AD0EFF3108087
:1019500085F3108801994901226813688B4313604D
:1019600080F31088EFF3108085F3108821688A686F
:10197000AA438A6080F31088202002994862039D60
:1019800006E02020029908624862E76627673D4624
:101990000F77284611B0F0BD0044004000380140E8
:1019A0003410024000E400E000E100E0F369FFCF02
:1019B000FFF4FF110000000004000000020000001E
:1019C00008000000006CDC028E730008F0FF0000CD
:1019D00001000100FFFFFF01F0B581B002468C203D
:1019E000105820281AD100291AD013465C33966863
:1019F00001200403A64215D11469002C01D1CC07A3
:101A000062D100265E6322241C63D66601241C80FA
:101A10001769002F00901AD0FF2019E0022053E030
:101A2000012051E000245C6322251D63D4661880E8
:101A3000584D2D6858809D1C0707BE42009014D059
:101A4000002E17D11669002E17D1FF2016E052483C
:101A50009880504D2D685C80002F0C4600D0344695
:101A6000002F00D139469D1C09E01669002E04D0D4
:101A70003F2003E09C80204601E07F2098802F8853
:101A8000002F16D01768FE69B60616D57F6A074084
:101A9000002902D00F70491C02E02780A41C0021FD
:101AA0001E6B222E0FD12E88761E2E802E88002EA1
:101AB000E8D120201863002006E036480068202086
:101AC0001863032000E0009801B0F0BDF0B583B0CA
:101AD00088240459202C5BD1002959D0002A57D0E2
:101AE000856801242703BD4204D10469002C01D17B
:101AF000CC074DD104465434009500250295E5638A
:101B00002125019565632280224D2E686280009A0E
:101B1000BA4208D10269002A0F4600D00027029776
:101B2000002A00D1114600686288002A2BD0C769BC
:101B30003F0607D42F68002B28D0BF1B9F4225D813
:101B40000768F4E7002903D00F788762491C07E093
:101B5000029A1188104F39408162921C0292002132
:101B6000676B019A1740212F12D167887F1E67800B
:101B70006788002FDBD106E02968002B06D0891B7F
:101B8000994203D80168C1694906F5D520206063F0
:101B900003B0F0BD9C0C0020FF010000FEE7000038
:101BA000F0B581B01B4803689C6999691A6864059F
:101BB000640F27D0802422400124CD0506D5002AB9
:101BC00004D02502466C26434664DD614D0507D5E9
:101BD000002A05D0A502466C082737434764DD611B
:101BE000890507D5002A05D06102426C02241443FE
:101BF0004464D961416C0B20014208D0EF4800F0E9
:101C00001BF804E0436B002B01D0EC48984701B06F
:101C1000F0BDC0466000002080B5806A816B00295D
:101C200001D000228A63C16B002901D000228A639F
:101C300000F084FC80BD000070B504464123C55C03
:101C400042220020A0545B4EE6626085666C0E4323
:101C50006664E65CE35C283D21464031022D09D8EC
:101C600028200640282E00D0F2220340282B24D022
:101C7000B42323E022681368FE25AB431360936905
:101C80009B0700D590629369DB0703D19369012517
:101C90001D4395614B78602B17D020234B709569BD
:101CA000AD0612D59569ED0605D51025D561656C93
:101CB00004262E436664D36107E00423134322689D
:101CC00015689D431560487021486063A06B236BC5
:101CD000002819D0212B01D0112B15D113685B04DA
:101CE00004D501239B0315689D4315602522825C62
:101CF000012A1CD000220A7016498163FEF704FEF7
:101D0000002817D0A06B1FE0E06B00280FD0222B1B
:101D100001D0122B0BD113681B0404D50123DB0364
:101D200015689D4315602522825C012A03D1204657
:101D300000F004FC70BD00220A7006498163FEF7C2
:101D4000E3FD0028F6D0E06B816B884770BDC0468C
:101D500051220008191C000810B5164AC262002260
:101D6000026341232024C4544223C25442630346E5
:101D70004033490712D5416A0468646A0C70416AAD
:101D8000491C4162018D002908D0448D641E4485A0
:101D9000491E0185416C04240C43446459785978E8
:101DA00000680168FE24A14301601A701021C1611E
:101DB00010BDC0460000FFFF10B542220021815433
:101DC0004122835C2024845402464032212B0CD1D2
:101DD0001123036341631170517828220A40F421D2
:101DE000C943282A15D0891C14E0122303634163D8
:101DF0001170527828231340F422D243282B00D1AB
:101E0000B03200680368134003600C4A904208D067
:101E100010BDB231006802680A400260FEF788FE19
:101E200010BD07480278012AF2D1064A0123137037
:101E3000054A1370054A1170017010BD005400402E
:101E40002902002041000020520200202802002028
:101E5000B0B501680C684222002383540246403228
:101E6000650403D4240405D5164C00E0144C0D6819
:101E700025400D605478292C0CD12824547021253C
:101E80000563137052782240F420C043282A11D0F1
:101E9000801C10E054782A2C10D12824547022255C
:101EA0000563137052782240F420C043282A02D1DF
:101EB000B03000E0B2300A6802400A60B0BDC046EF
:101EC000FFBFFFFFFF7FFFFFF0B582B03B4F3B68D6
:101ED0009C69E40602D400210C4636E01024DC6143
:101EE0009C69A4062AD40124A2030192344E0090D6
:101EF00035686D1A85421ED95D683A4642271046FC
:101F0000D25D9F69202A0CD0019A154009D1E203C5
:101F10001740074606D05968019801435960316857
:101F200000E0074600989A69920604D43268521A73
:101F3000192AF8D907E09A699206D9D52020D861E4
:101F40000124042101E09869242101209D69EA050A
:101F500003D50202DA61014304466A0504D5800212
:101F6000D8610820014301240120AA0504D54202BA
:101F7000DA610222114301E0002C1CD09A69920719
:101F800001D500229A629A69D20703D19A69012485
:101F900014439C615A68A84C14405C607A6C0A43F4
:101FA0007A64412120227A54402100227A5442212D
:101FB0007A5402B0F0BD0020FBE7C046600000206C
:101FC0009C0C0020F0B583B00D4604464020215CF7
:101FD000012901D10220E1E01646274640370123BE
:101FE0003B7011462940CA0618D44A0729D4422218
:101FF0002A40022A35D10222324032D0608D002898
:102000004FD02068616A0A788262481C6062208D25
:10201000401E2085608D401E608542E020681021B2
:10202000C161616C04220A4362648169890701D538
:10203000002181628169C90733D1816919438161B6
:102040002FE0606A2168496A0170606A401C606222
:10205000208D401E2085608D401E608504208543B4
:102060001FE02A0611D530400FD0608D0028019363
:1020700003D0208D002800D192E0206840688001C4
:102080000AD42046FFF798FE0AE0480609D50193D6
:10209000608D002800D193E040212046FFF7CCFD61
:1020A000019B2E40B00677D5019320682021C161A5
:1020B0007A787B78212A07D128221340F422D24350
:1020C000282B0ED0921C0DE0222B10D17A782826D6
:1020D0001640F422D343282E00D1B03302681226D2
:1020E00002E0B232036811261A4002602663426899
:1020F000514B13404360002262634C4BE362EB069A
:1021000005D51023C361636C04261E4366647B7887
:102110006D0705D5602B03D1436ADBB20293029BA6
:1021200083699B0700D582628369DB0703D18369DA
:10213000019D2B438361656C7B78002D0ED1602B54
:102140000CD07B78212B0ED1797022633A70B9784C
:10215000BA70402920D0FEF7EBFC1DE0616C2046F0
:10216000FFF76AFD18E07B78222B15D17970226386
:102170003A70B978BA7040290ED0304988420BD1F4
:102180002F480178012907D12E49019B0B702E4958
:102190000B702E490A7002700020387003B0F0BD39
:1021A0002068426820491140628D120A18D0FF222F
:1021B000228542681E4B13405918019B1D4A20E09E
:1021C00020684168890100D56AE7E16ADA4A9142EC
:1021D00000D056E7019B990342680A43426060E7DA
:1021E000628D00922285E36AD34A93420CD1426801
:1021F0000F4B1340009AD2B212045118C918019B18
:102200005A06891841604CE7019AD207E36A934362
:10221000009AD2B21204511819434268044B134079
:102220000B4343603CE7C046FF0300000000FFFF94
:10223000009C00FC0000FF0100E800FE005400408C
:102240002902002041000020520200202802002024
:10225000F0B585B004464020205CE56A012801D134
:1022600002203BE126464036012737700A4090069F
:102270001AD4D00638D4500749D4100700D5D9E075
:10228000900700D428E1608D002800D143E1206848
:10229000616A0A788262481C6062208D401E208537
:1022A000608D401E608517E10397049123681868CC
:1022B0000290E06A01903246767820200090D86142
:1022C000213E092E51D8FE20C743381D2121C0468A
:1022D0007E4436797600B74443044848484848402D
:1022E0004304B81C22213BE0608D00282BD02068DD
:1022F0001022C261606C0422024362648D48054270
:1023000000D0E9E0616C2046FFF796FCE4E0608DC8
:1023100000280CD0606A2268526A0270606A401C11
:102320006062208D401E2085608D401E6085608D1E
:10233000814A954200D1CFE0002800D0CCE0204671
:10234000FFF786FDC8E070787A06954200D0C7E0B6
:10235000282800D0C4E02046ADE05078002138465F
:1023600055781D6805401D602163039FF903586877
:102370000843586058686E4D05405D609869800755
:1023800001D5002098629869C007164602D1986965
:1023900038439861029A5004049D06D40A420ED034
:1023A000186888431860E06B04E0B803196881433B
:1023B0001960A06B002802D000684068608568073B
:1023C0000FD5606A596A0170606A401C606204201F
:1023D0008543208D002804D0401E2085608D401E3E
:1023E0006085608D002803D0606C04210143616426
:1023F0002A40D00650D5608D00280FD020681021CB
:10240000C161606C0421014361644A480199014241
:1024100042D1616C2046FFF70FFC3DE070787906F1
:10242000019A8A4220D128281ED120462946FFF74A
:1024300093FC31E07078282101402068282965D17B
:10244000816981698268C368E368022B05D1090C40
:10245000D2094A405107890F61D0002131700168CB
:10246000B8229143016037E0707821681022CA6178
:10247000314A019B93420FD029280DD188698007EA
:1024800001D5002088628869C00702D18869384375
:1024900088612046FFF7DCFC0027B7706763606C3B
:1024A00000280BD0616C2046FFF7C6FB7078282807
:1024B00012D120462946FFF74FFC0DE0E06A1E4D81
:1024C000A84201D1707803E02046FFF7C1FCE56225
:1024D00000987070377027630020307005B0F0BD31
:1024E000707822681023D361134B9D42F4D02928C1
:1024F000F2D19069800701D5002090629069C007F1
:1025000000D01CE790693843906118E700213170D2
:102510000821C161E0E707480542DDD10FE7A16C62
:10252000491CA164A16C0229D6D10021A164EEE767
:1025300000E800FEFFFFFFFE0000FFFF4121415CBD
:1025400002464032602905D12021517000211170CE
:102550000163704700211170016300680A4A9042CC
:1025600000D0704764480278012AFAD1654A117098
:10257000064A1170654A02231370054A11705D4ABC
:10258000117001707047C0460054004041000020A7
:102590003E000020F0B581B00E4607463248006884
:1025A00080693840C01B414241410020B1422DD1D9
:1025B0001C461546009028462146FFF785FC01463B
:1025C0000120002922D1294909680A1B26490968E6
:1025D000AA4206D98A693A40D21B53425341B342B8
:1025E00008D088693840C01B41424141B142E2D025
:1025F00000980BE01C4B596C202211435964412177
:102600005A54402100225A5442215A5401B0F0BD7C
:10261000F0B581B00446144D286880690026800713
:1026200013D4124F64202146FFF74EFC01460120CF
:1026300000290BD139680A1B2968652A02D38A69E7
:10264000920705D588698007ECD5304601B0F0BD0A
:10265000696C20221143696441216A54402100229F
:102660006A5442216A54F1E7600000209C0C00206B
:1026700010B50948007800280CD0084804680848BC
:10268000016808480068FDF753FE01462046FDF743
:1026900047FE10BD002010BD6C0C0020580000202B
:1026A0002C0200205C000020F0B581B0114D2A788A
:1026B000002A01D0002419E00F4A012414702C7064
:1026C0000E4A10700E4A11700E490C700E490870B7
:1026D0000E4F00263E702046FEF790FA002805D0E7
:1026E0002E7005480670022038703446204601B02E
:1026F000F0BDC0462802002029020020910C0020D5
:10270000900C0020950C0020960C00205202002016
:10271000B0B581B010490A781048002A10D10122C2
:10272000D3020F4C25681D43256024681C4000948B
:10273000009B2F2383620B4BC36242610A700260CD
:1027400009490A88406A0880801A80B207490A68E5
:102750001018086001B0B0BD2E000020002C014010
:1027600040100240FFFF00002C0000202800002045
:1027700070B5F423A349CA5C0024CC54022A1DD0AE
:10278000012A5CD10B68002B59D08A88002A56D0C8
:102790001C89944253D35B68002B50D09200D2180E
:1027A000121F1278032A4AD1152212018A5C002ACC
:1027B00045D06822895C00294ED040E00A46F432B8
:1027C00092880C688B88002C2ED0002B2CD0258969
:1027D0009D4229D36468002C26D09D002C19241F0B
:1027E0002478032C20D1152424010C5D002C1BD04F
:1027F00068240C5D002C17D1002A2DD0A924650077
:102800004C5D032C1CD9FF2004465C3402250D5579
:1028100004465A3401250D554F24A40005260E55B3
:1028200058300D54081908E0FF205A3001240C5488
:102830004F2080000A240C5408188280438070BD09
:10284000631C4B55FF235233CB5C1B199B075B0F5B
:10285000C9184D239B00CA5201F060F870BDC046F4
:10286000F0B581B00A46674C2568A388002D13D0C7
:10287000002B11D0298999420ED36E68002E0BD0FF
:10288000591E8F00F15D032926D8009779440979F4
:1028900049008F4401233C46C6B2010C002E15D0DE
:1028A000022E16D17C2000212154E0880C214143C6
:1028B00068689B001818801E0088C000EB681858D4
:1028C00040180089114601F083F805E00020C0435C
:1028D00000E0012001F08AFF01B0F0BDC1B2070C99
:1028E00000292AD002292BD10098301840880001F5
:1028F000696908188589E188A9420ED04068CD0031
:1029000040190579AE1E032E43D207205BE0C3B207
:10291000010C002B19D0022B1AD1104600F0FEFF3B
:10292000DAE7AD214D0001216155C0B202282DD159
:10293000032B11D1FDF734FF28E00020C04300E055
:102940000120394602F0A8F8C6E70020C04300E0A5
:10295000012001F0C9FFBFE7F420225C002A15D155
:10296000FF225432A25C002A10D06822A25C002A06
:102970000CD115221201A25C002A07D02154204656
:10298000F430002141808160C16081800020605569
:10299000A2E7002D0BD0012D14D1C08800289BD0B8
:1029A000A9225500625D032A1FD905200BE0C088CB
:1029B000114601F00DF80421014304298CD0A388AD
:1029C000E18800E00320FF2215465C3502266655AB
:1029D00015465A35012666554F25AD0060555832CB
:1029E000A65460198180438076E7511C6155FF2110
:1029F0005231615C89188907490F61184D22920094
:102A0000885269E768020020B0B500290FD00C4653
:102A10000546084601F022FC8021081AC10F401823
:102A20004008401900B20121224601F0F7FAB0BD7A
:102A3000F0B5AFB01C91064611480568002D05D0D1
:102A40003488002C02D02889A04201D22FB0F0BDDA
:102A50001F46002BFAD068680028F7D0611E890055
:102A6000435C032BF2D8159211971D965B00C0466C
:102A70007B449B885B009F44050056002C033A036F
:102A80006802002040184688EC6800214023159811
:102A900019913A46179301F051FCF44F3D4601CD90
:102AA000C06B01F07FFCF0001D9920181E907F2064
:102AB000C0431A90A94200D053E37C20385C002820
:102AC00000D14EE35120800038583D46B96F401A7E
:102AD0004B21890000F098FE03461B903C6F786FF5
:102AE000E217C117001B91411A46199E3346FDF7A4
:102AF00065FB0A0D80187141000B0905401820186C
:102B0000FF6E0546F91738461B9A3346FDF756FB0C
:102B10000A0D80187141000B090540183C1A1A9ED5
:102B200000D424E324E3401840886969B268F3685C
:102B300020921F9300010818139002F051F8109092
:102B400015983C18C949081D86420CD18E20085C96
:102B5000002808D051208000085820A91FAA01F0A1
:102B600037FFC2490D6820B20690286C01F01AFCAC
:102B700000260E25159C204631463A462B4601F08C
:102B8000DDFB139801681C98FFF73EFFB74800680B
:102B9000406C01F007FC30232046294635463A4672
:102BA000169301F0CBFB109F002F00D144E21C9A3A
:102BB000114608310BB215980B93834200DB08468F
:102BC0006A3211B2069B9942194600DC114603B2E3
:102BD0000AB20A939A42089501DB081A08901398E2
:102BE000014608310991011D0F910C300C9020987D
:102BF000C117090E4018001212901C9B184678301D
:102C0000194672311A466E3207927F22D2431792CA
:102C100075331B931AB2531D0593121F04920122A0
:102C20001D9209B2039100B20290A9B2139801F06B
:102C3000F3FF064628010E301299441A20048C49ED
:102C4000081808301F214904884200D9F0E10C9887
:102C50000088864221D1089882B20E2730260A9831
:102C60003946334601F06AFB80480068826C204692
:102C70002C4605B20B98294601F0D0F91598394633
:102C8000109F119A334601F059FB079800B229466C
:102C900025461D9A01F070FDCAE10E9421A800247A
:102CA00004700F9909680470F700C81901790329A5
:102CB0001E960D9511D002297FD11A97C0881C212C
:102CC00041436A480068406A401841691991406868
:102CD0000768002F1ED4264621E0C0880C214143FE
:102CE00062480068C26A511849680978002901D011
:102CF000542100E05821415800200A5C002A05D0E8
:102D000021AB1A54401C1328F7D1132021A900220B
:102D10000A5441E021A82D2101707F421D9E02220C
:102D200015460A213846FDF71FFA179976314143B7
:102D30007918169A11432BAA1155611C0A2F04D336
:102D40006A1C0A2C07460C46EAD3179B2BA840198D
:102D500018187E22805C21AA90556D1E761C491E93
:102D6000F4D1199900290D9D1A9F11D00A78002AD3
:102D70000ED021A88019491C0023C254F218521CFD
:102D80005C1C122A03D8CA5C002A2346F5D13619E6
:102D900021A8002181551E9E21A8007800280CD072
:102DA0000998006800281BD0B108405CB107490FA2
:102DB000C840800714D06A2413E00F990868C0192E
:102DC0000079002832D00998006800281FD0B10887
:102DD000405CB107490FC840800718D06E2017E04B
:102DE000702421AE304601F039FA201A1C9943189C
:102DF000991E08B2069A904200DC0A4611B20A985F
:102E000081421A9619933C4634DB111A33E079203B
:102E10001C99411808B2069A904200DC0A4611B289
:102E20000A983C46814246DB111A45E0089882B276
:102E30000E2630231A930A980C46314601F07EFA8A
:102E40002068C2590E9C27B20B98394601F0E6F86B
:102E5000159831461E9E119A1A9B01F06FFA079839
:102E600000B20022394601F087FC3BE068020020F6
:102E7000F8FF000000218AB20E26302731463B467B
:102E800001F05CFA0F98006802590E9C25B20B986D
:102E9000294601F0C3F815983146119A3B4601F0D6
:102EA0004DFA199800B229461A9A01F0B7F8109F06
:102EB0000D9D1E9E17E000218AB20E263027314656
:102EC0003B4601F03BFA0F98006802590E9C21B274
:102ED0000B9801F0A3F815983146119A3B4601F082
:102EE0002DFA1E9E109F09980068002800D19FE0CF
:102EF000B108405CB107490FC840800700D197E096
:102F0000F248008800B22646083632B2511D81428E
:102F100000DC0846EE49098809B2121F8A4200DB2C
:102F20001146EC4A128812B2059B934200DC059AC6
:102F3000E94B1B881BB2049C9C4200DB049B934220
:102F40006BDA814269DA17997D3100240425032266
:102F5000189619921A911B981E95401907B23019AC
:102F600001B2384614911D9D2A4601F0B1F9002C9A
:102F700005D0301B01B238462A4601F0A9F91E9D42
:102F8000002D10D01B98401B07B2384614991D9A8B
:102F900001F09EF9002C06D01898001B01B23846AB
:102FA0001D9A01F095F9AC4225D01B98001906B284
:102FB000189F781901B2304614911D9D2A4601F0E0
:102FC00087F91E98381A07B2304639462A461E9DA0
:102FD00001F07EF9002C0ED01B98001B06B2304683
:102FE00014991D9D2A4601F073F9304639462A4648
:102FF0001E9D01F06DF9681E1A99002900D405463E
:103000000029199A00D50020189E4000081A1118AE
:10301000921C601CA54204469BDC0E99481D0B3196
:1030200009B203B20398029A00F02CFE109F0D9D86
:103030006D1CBD4200D0F8E5A84C022020701F98FE
:1030400003210091C117090E4018000A0E3001B289
:103050001C9FF81C00B27622102300F095FE012080
:103060002070109C042C29D338467F301599884253
:1030700024DB3D467C35069885421FDA209E7D374D
:1030800038B20E21169F3A4601F050F890202146A2
:10309000FDF76AF822460446391AF017000D301879
:1030A000000B80B24843D11E89B2FDF75DF80E30A7
:1030B00001B228B20322234600F090FD844800218B
:1030C0000180854801808348802101807F4840211C
:1030D00011E3401840880C244443EE69305900281D
:1030E00000D121E10078411E884100011DE1AD20A1
:1030F000410001267A481D91465400254023159829
:1031000029463A4601F01AF9764801F04BF976481B
:103110000670032C1E96714834D1067073480678E9
:10312000734801F09BF800B28027381AC10F40188D
:1031300040081C9D401900B2002421466C4A00F052
:103140006DFF681C3D46002E00D1D7E2052100919D
:1031500000B211217E22162300F016FE5F48047093
:10316000D2E249881E9801F027FB054600248026FC
:103170005B480068C06B01F015F9002D119974DAF5
:103180001A9873E006705B4802685B48036821AEDA
:103190005A49304604F024F81C98401C04B22046DA
:1031A0002946324600F03AFF5548007800282A4662
:1031B00006D05448006854490968FDF7B1F8024642
:1031C0005248036821AE5249304604F009F81021F4
:1031D0002046324600F022FFB5704E483080FFF79F
:1031E00047FA01462BAF03223846FDF7C3F93046B4
:1031F0003946FCF77DFFFCF787FF57273754301817
:103200004570042000901D217E221323204600F0EB
:10321000BBFD32481B94044605701C98C01D00B2CB
:103220002021324600F0FAFE1E9820703A480068CD
:103230003A490968081A00D594E23948219039487A
:1032400001682BAE03223046FDF794F921AD2846E4
:103250003146FCF74DFFFCF757FF2F54281800218B
:10326000417030211B982A467FE28020159A8F18E2
:103270004019C117090E45183019C117090E441815
:103280001E98011D1B9180880028199B00D1A3E086
:10329000189419970024264627461E98006800595E
:1032A00000F0DCFF02460C3290B2B9B2884200D87E
:1032B0003A460C34761C1B9803889E421746ECD382
:1032C00090B2772800D95DE114925DE10E000020F4
:1032D0000A0C00200C000020080C00201100002027
:1032E00068020020A0740008420C00204600002064
:1032F000107E00085C0000207C0C0020A17D0008EE
:1033000050020020540000202C020020700C0020ED
:10331000927D0008503D0000FC0300209C0C002022
:10332000504B3D00780C002000201B9015991D9BF0
:1033300098680D90F64A101D83420BD18E20105CC8
:10334000002807D051208000F149085801F01CFBEB
:1033500015990D90341978181E901B9E002E10940C
:103360003CD0286C01F01EF80025159829463A46F5
:10337000334600F0E3FF21681C9C2046FFF744FB26
:10338000711E7D22204600F051FC02200090204654
:10339000723000B201211D910C22134600F0F4FCA2
:1033A000DC4805702046753000B21A9021467A310B
:1033B0000FB20426092531463A462B4600F062FC3E
:1033C000384631461A9A2B4600F05CFC1D98D149CC
:1033D0000870CF48056802E01493D8E01C9C686C24
:1033E00000F0E0FF1E9A10B27D340B90844200DBA7
:1033F0001446402021B21C9C159BA3421B9F00DB5E
:103400001C46C51BA142139109DD081B82B220B2E4
:1034100039462B4600F092FF159B002200E0012266
:103420001098169529090C91014608310089002849
:103430007DD01892199122B21C98811D08B20F926A
:1034400017909042204600DB08460D9A002A02DAC7
:103450007F21C94300E0802100B212908818C11773
:10346000090E401800121E901398001B1099091D98
:103470001A91002580B20E902E461D951999189A22
:103480002801C0191E9C001B04B23F2C01DC1D98B2
:1034900000E00120104345D120461030B84241DD04
:1034A0001A98006881194F68002F32D039780029A6
:1034B0002FD0384600F0D2FE1C990B1A18467730F0
:1034C00001B2139A9142114600DC014609B27933E8
:1034D0001493129881420DDD1298091A8AB21B9931
:1034E000169B00F02BFF1A98006882591798214606
:1034F00000F094FD0F981B990E9A169B00F01EFF8A
:10350000149800B221463A461B9F00F087FD159B98
:1035100006E082591798214600F080FD159B1B9FFD
:103520001999189A08366D1C08888542A8D3002777
:10353000402418460D463946119A1E46234600F08F
:10354000FDFE29880C9888421C9D00D339E17E3508
:10355000B54200DA35E10B98854200DB31E116987F
:10356000404309010E46FCF7FFFD10990A68002A46
:1035700021460D9B00D101E11178002900D1FCE02A
:103580003021FBE078201490159A199F189C201286
:1035900016903FB228121890002B34D01C98169920
:1035A00008181990002604243D461D9840881A9951
:1035B0007F31414372185F08BA4202DDC81A3018E1
:1035C00004E0301A79428A4200DAC018159A2F4670
:1035D000800130301999081800B2A8420FDA01466C
:1035E000203191420BDD1E9909680959009108218B
:1035F0002022134600F0CEFD159A1B9803880C3448
:10360000761C9E42D0D3189DABB2D80B281800B2BE
:1036100040101C99091A40310CB29442084600DC53
:10362000104600B249190AB2BA421D9E00DC0F468C
:1036300039B2814255DD13941593091A8AB22C21AF
:10364000142300F07BFE1B98008800283CD01499BE
:10365000091D169A12B209B219914A43D117890E5F
:1036600051188911189100252F4671881A9A7F32B6
:103670004A43BB184608B34202DD101A3C1804E066
:103680007C1A71428B4200DA24181E9E3068405921
:1036900000F0E4FD00B28021081AC10F4018400874
:1036A00019994C431899611808181C99401800B2D0
:1036B00031684A592E2100F0B1FC0C357F1C1B9853
:1036C000008887421D9ED0D3444C022020700320E6
:1036D00000902C2114231398159A00F055FB01201B
:1036E00020704548002101804448018044488021E1
:1036F0000180444817990180FFF7A8F900B2112111
:103700001622052300F0A4FB002E05D137A404E007
:10371000680200201100002032A41D9F204600F006
:103720009DFD00B22E46281AC10F401840081C9D6E
:10373000401900B21421224600F070FC1E9827495F
:1037400008702C4C204600F089FD00B2301AC10FE1
:1037500040184008401900B22C21224600F05EFCBF
:103760001D4906E030211E4A1B9800F057FC1A49FB
:103770001D9F0020C855FFF769F94021002B02DA90
:103780007F22D24300E08022D218D3171B0ED2181A
:10379000120A12B20304DB0C00D10820334686B2B1
:1037A0001698801B4243591A00D239461046FCF73E
:1037B000F1FC1B99081801B228B20222334600F02E
:1037C0000DFA0D4807800D4807800D4880210180C3
:1037D0000C480480FFF73AF968020020110000202D
:1037E000E803002050574D204F4E000050574D2009
:1037F0004F464600297E00080A0C0020080C0020D5
:103800000C0000200E000020B0B5884218D24B22D8
:1038100094006043FCF7A8FC850128462146FCF78C
:10382000A3FC0949414369184000084A155A101879
:103830004088401B48432146FCF796FC281801E0CD
:103840000120000380B2B0BDD4FEFFFF967B0008CC
:10385000F0B581B0A94E30684168B2889200511825
:10386000891E0988090140694418A089F1888142AC
:1038700002D9F08003462AE0884227D0A268002AB5
:1038800024D08B08D35C8D076D0FEB409B071DD0B8
:10389000F0800B465B1C9DB2854214D2AF08D75D09
:1038A000AD076D0FEF40BD07F4D134E04B1E9DB264
:1038B000A8422FD0AF08D75DAD076D0FEF40BD0711
:1038C000491E002D27D00029F0D1D3E70B4699B22D
:1038D000204601F0C1F805463789B84203D3F81CE9
:1038E000A84202D8A81E30810746204601F078F988
:1038F000032800D80320C01E81B2BAB28A4201D97F
:1039000030810746B8B20103281A0003F160306124
:1039100001B0F0BD0346F380D9E7C046F0B587B0EB
:103920006821764A515C002903D00425284607B057
:10393000F0BD15210B01D15C002946D00290151D68
:10394000019503A8D4CDD4C0491E6C4AD154C8B245
:1039500000016A4908181430019D1EC81EC5674C35
:103960002168002910D0A08800280DD00A89824241
:103970000AD34968002907D080004018001F00784A
:10398000012801D1FFF764FF8E20002525547C20FB
:10399000255403A80121029A01F05CF9216800294D
:1039A000C4D0A0880028C1D00A898242BED3496809
:1039B0000029BBD080004018001F00780328B5D133
:1039C000AD20400000252554B0E70A25AEE7C046EB
:1039D000F0B58BB00C46494F3968002904D0002857
:1039E00002D00D89854204D2012507A828460BB0D4
:1039F000F0BD4E6807A9002E06D06821795C07AAA1
:103A0000002903D00425F1E70125EFE7152109017D
:103A10007A5CBB880692042A12D3FF210A465C32E4
:103A20000224BC540A465A320124BC544F2292004C
:103A30000625BD5458317C54B91888804B80D4E792
:103A400004911A4683009B19191F0591531E9BB2BE
:103A5000AB420DD2114693009B191B1F1B78032B01
:103A600006D105990B7807AD032B01D10A25BDE7D7
:103A70003B1D029307A9039101910094019C66CB21
:103A800066C4069B591C049AB9541901791814315B
:103A9000029F6CCF6CC1194E00F014F88E200025E7
:103AA00035547C20355403982946009A01F0D2F809
:103AB00005980078032899D1AD20400000253554A1
:103AC00093E7C04680B50D490022CA600A610A81A9
:103AD000CA808880096800290FD000280DD00A8983
:103AE00082420AD34968002907D080004018001F8D
:103AF0000078012801D1FFF7ABFE80BD68020020ED
:103B0000F0B581B0C4002E4D2B192F4E36682F5DB5
:103B1000032F39D80092062444432A4A155B2E40CD
:103B20007F443F797F00BF4401070F28002E2DD12D
:103B300001201870596029E05868081A142825DBFC
:103B400070427041400020E01546002E04D100284C
:103B50001ED1009A002A1BD0002018701B48017843
:103B60004B1C07221A401A4B1B789A420ED02B1975
:103B70009B78184C6354027008E0002E04D1002892
:103B800004D10098002801D00020187001B0F0BDC9
:103B90000028FBD15868081A7D21C9008842F5DB4E
:103BA00003201870094801784B1C07221A40084B63
:103BB0001B789A42EAD02B19DB1C1B78D9E7C04648
:103BC00058020020947400081000005047000020A4
:103BD0005000002048000020FEE70000F0B581B052
:103BE0001F4614460E46054603F096F900281BD0E2
:103BF0003246B819954909880FB2B84214DD924986
:103C000009880EB296420FDDB04200DC06469742AC
:103C100000DC1746BE4207DD39B22846224600F0D6
:103C200005F87F1CB742F7DB01B0F0BD70B50C465C
:103C300011B2012924DBF449098809B2A1421FDC31
:103C4000F049098809B2A1421ADD1118EF4A128819
:103C500015B2A94214DDEE4A128816B286420FDD73
:103C6000B14200DC0E46854200DC0546AE4207DD6F
:103C700028B20122214600F02BFB6D1CB542F7DB78
:103C800070BDC046F0B587B0059204460020C04321
:103C9000012206938B420B460192009200DC0090B9
:103CA0000599A14200DC019006989842194600DB74
:103CB0000699D448008800B2814200DA481C059970
:103CC000A142224600DB059AD149098809B28A42FD
:103CD0001D4600DA511C069BAB4200DB2B46CA4A4C
:103CE000128812B2934200DB1A46059BA34200DB06
:103CF00023462646C54C248824B2A34200DB1C463A
:103D0000A1423FDD90423DDD294634460122304646
:103D1000049200F0DDFA29460598B04202D10698D7
:103D200088422FD00698401A0599091BC217CB1755
:103D30008018C91850400A465A4029464342171A6B
:103D4000039202937E00B34201DC0198241820B252
:103D50002546B24201DB009A89180C4609B2049A42
:103D600000F0B6FA029BB34200DCFF18039AB2429D
:103D7000214600DBBF182C4606988142E2D1059807
:103D80008442DFD107B0F0BDF0B585B0049018468D
:103D9000104300B2002855D4002A53D0019258187D
:103DA000F94A128812B2904200DC02460092F748AB
:103DB000008806B28E42019800DC0E460393049BF5
:103DC000C018F34A128812B29A4200DC049AED4BF2
:103DD0001B881BB2984200DC03469342039B009869
:103DE000019A2FDDB0422DDD0A989A4200D31A467F
:103DF000884BD218520893B2834200D3024697B23E
:103E0000802F039B1ED8100418D048420290009DBA
:103E1000019C029882191846394603F0B5F80499B6
:103E200041180BB24000201A82B231B21846FFF797
:103E3000FDFE039B761CAE42EBDB03E00498019A87
:103E4000FFF7CCFE05B0F0BD0E0000200A0C0020EC
:103E5000F0B589B00890079210B2002800D5CEE0E6
:103E60000F4607984418F948008800B2049084422D
:103E700000DC0494F748008805B2BD4200DC3D46F2
:103E8000089A10467E30F449098809B2914200DC54
:103E90000899EF4A128812B2904200DC02468A4228
:103EA00000DCACE00498A84200DCA8E0594807997F
:103EB0000818400881B2994200D3184681B2069191
:103EC000802900D99BE0000466D00798C019012121
:103ED000081A00907842039008987D300590039866
:103EE000441907980699224603F04EF807460598AC
:103EF000C11B08983E18002C0FD0009840190CD018
:103F00000291621E0798069903F03EF80599091A76
:103F1000874207DC029A019207E0881B401C82B2AC
:103F200030B231E04A1E0192029A874201DB11460B
:103F300000E0491C874200DC0A46144608994218F2
:103F4000874201DC334600E0531C8742314600DBE8
:103F50001946874200DA561E701CA0420FDA701A0A
:103F6000401C264682B208B22CB22146FFF75EFE04
:103F70000198801B401C82B230B2214605E00198B6
:103F8000401A401C82B208B229B2FFF74FFE6D1CE6
:103F900004988542A3DB32E07E2208983946079BCD
:103FA00002F0BAFF00282AD07E2208983946FFF78F
:103FB0003DFE19482018000C05D1601E01B27E227A
:103FC0000898FFF733FE0798032818D3012004044C
:103FD000781C06B20798801E85B2089F3846314685
:103FE0002A4600F0A3F80C48C0197E30A04206D241
:103FF00008987D3000B231462A4600F097F809B0A3
:10400000F0BDC0460E0000200A0C0020080C002065
:104010000C000020FFFF0100FF7F0000F0B595B00D
:1040200003910690002A7FD0A74D286800287BD0F6
:104030001078002878D0039F16460BA9104603F08D
:1040400043F829680024002966D00DA90CAA02F0C3
:10405000DFFE002860D00CA80078002859D0029616
:10406000109813900F9812900020049011900DA8B2
:104070000178059100294AD04078002847D0059959
:104080004143059143D0E64C217812AD284602F019
:104090001FFF08906178284602F01AFF07902E79DA
:1040A000129C0898009004980190069805B20DAAF9
:1040B0000A9211AB09932846394602F05FFE0120AF
:1040C000079900910190284639460A9A099B02F007
:1040D00055FEF2B22178D140761CF0B2092805D302
:1040E00008239B1A62789A400A4300E00A46072197
:1040F0000E40C0082418D007119802D005998842B4
:10410000CFD312A90E71129405998842BBD3C34D27
:10411000029E04200DA90C560B98321806996118BE
:104120000691305C002887D115B0F0BD70B504460B
:1041300010B2012824DB9848008800B2A0421FDC9E
:104140009648008800B2A0421ADD5018914A1288A1
:1041500015B2A84214DD924A128816B28E420FDDC3
:10416000B04200DC06468D4200DC0D46AE4207DD63
:1041700029B20122204600F0ABF86D1CB542F7DBF6
:1041800070BDC0460C0000200E0000200A0C00206C
:10419000080C0020F0B587B0019101460C98029000
:1041A000002851D0501E7F284ED801980C4619186F
:1041B000059410197A4B1B881BB20393994200DCBB
:1041C0000391764909880BB2984200DC0346714896
:1041D000008807B201988742059900DC019F6E486C
:1041E000008804B28C4200DC0C46A3422CDD03980C
:1041F000B84229DDD01DC00800900494029EA3425D
:104200001DDD0198381A84B2009844430694049D39
:10421000681A0721014080B2C008069C0019305C72
:10422000C8400122024028B239B23C461F4600F085
:104230004FF83B46274605996D1C9D42E8DB7F1CE5
:1042400003988742049CDADB07B0F0BD0E00002023
:104250000C0000200A0C0020080C002070B586B06D
:1042600000282ED004466D480068002829D0207808
:10427000002826D0002635466946204602F024FF55
:1042800002A901AA02F0C4FD002808D0042002A956
:1042900008562D1802228A560978511801E0304636
:1042A0003146009AA318A25C002A1C46E4D1281AC1
:1042B0004018012805DB0549884200DB084680B22A
:1042C00000E0002006B070BD240C0020FFFF0000BD
:1042D000314B1B881BB283422CDC304B1B881BB23A
:1042E000834227DD2B4B1B881BB28B4222DC2C4BDD
:1042F0001B881BB28B421DDD002A1BD0B54A1278E9
:104300009202B64B9A18CB08DB01181880B210182D
:1043100007220A4001219140074A1378012B02D15C
:1043200002780A4305E00278002B01D04A4000E001
:104330008A4302707047C04611000020F0B51C4649
:10434000144324B2002C24D4402440290D4600DB21
:1043500025461618EA1795430E4A158080228028B4
:1043600000DB1046C717B8430B4F388087B2BE42F8
:1043700000DB37465818802F00DB174607490F80AF
:10438000A9B2884200DB0146402900DB21460448EF
:104390000180F0BD0A0C0020080C00200C00002059
:1043A0000E00002080B51D49086000282ED08278BC
:1043B0001B490A70C2784A704279CA7002798A70C1
:1043C00082790A71027A8A71C2794A71427ACA7113
:1043D000C27A4A72827A0A72027B8A72427BCA72FB
:1043E000827B0A73C27B4A73027C8A73827C437C21
:1043F0001B029A180A82027DC37C1B029A184A8209
:10440000827D407D00028018888203E004481621E6
:10441000FBF72AFF02F02CFE80BDC046240C0020D2
:104420002C0C0020F0B587B064480078002859D0E3
:10443000634800780124002857D16248007800289A
:1044400053D16149614808604860614800220260B8
:1044500042606048017860480170019189025F48BC
:10446000049141185E4B1B7800939B020593C4187E
:104470005C480078039001200290134603980028BE
:1044800007D07F265248865400264F488654029B08
:104490000FE0D00106900027E55DC85DA84203D17A
:1044A0007F1C802FF8D104E047488754B8B2802899
:1044B00005D180318034521C082ADFD118E08027D2
:1044C000002FE4D0454B059818187F1EBDB2069EFC
:1044D000AD19405D049E9B195B5D8342F0D03C4862
:1044E0008754D4E7404802240470204607B0F0BD4A
:1044F000D80705D033490878002813D0012456E0A6
:104500003448009901703648019901703348059983
:10451000401801218902FBF7A7FE334800240470EC
:104520003048E1E70120059008702C4804994418B0
:104530000027FBB2072B20D82349CD5D69B20029A3
:104540001BD4234AD05D06900F220A4027484270B0
:10455000B02213430370CEB23109103181700321B0
:1045600002F048FD00281ED160190699891B491CDC
:1045700089B202F05BFD002815D180347F1C082F22
:10458000D7D100240F480470154B1878114A1178C0
:104590001970107080021149081805998902FBF7FB
:1045A00063FE1148BBE700200649087002240E484C
:1045B00004700C480299017097E7C046450C002032
:1045C00004040020200C0020180C00208080808033
:1045D000100C002010000020120000200804002011
:1045E000480C0020440C0020460C0020210C002028
:1045F0007047704757480168491C01607047C046C2
:104600000120C006014908607047C04608ED00E07F
:10461000F0B581B0534D686E002814D028688668C4
:104620008068400F0C49095C0C4F385CC000FBF7F8
:104630009BFD04463001400F0749095C385CC0000F
:10464000FBF792FD01E001242046682168526A20B0
:104650002C5201B0F0BDC0464874000840740008F8
:1046600070470000B0B5EFF31082012181F310888C
:1046700009235B01046825689D43256082F3108847
:10468000EFF3108281F3108803689C680C4D25407D
:104690009D6082F31088C26E012A0AD1EFF3108266
:1046A00081F3108801680B681024A3430B6082F328
:1046B00010888C212022425000214167C166B0BD84
:1046C000FEFFFFEFF0B585B00668F4690C400025E9
:1046D0008C4201D128463AE0039501900446843487
:1046E000029401240094E40204941A48049D07688B
:1046F0000324002B2AD0BF1A9F4227D837687F0790
:1047000009D5402907D0802905D0F7693F0708D48B
:10471000F7692F4210D1F4690C408C42E7D103981D
:1047200015E0082434620198FFF79CFF00200299ED
:104730000870CC6000980AE0049931620198FFF794
:1047400091FF0020029908702020C860204605B023
:10475000F0BDC0469C0C002080B50248FCF79CFDD3
:1047600080BDC0460001002080B50248FCF794FDE2
:1047700080BDC04694010020F0B581B00D460446CE
:10478000002A01D1032001E00220C043001906B233
:10479000681D01B22846083007B2204632463B4623
:1047A000FFF770FA0B352BB2304639462246FFF739
:1047B00069FA01B0F0BD0000B0B50C460546A54849
:1047C0000068C06BFFF7EEFD0C20604329680858B5
:1047D000FFF744FD6C2800D36C2000020D21090274
:1047E00041187F2040020840B0BDC046F0B587B0F8
:1047F0000690002975D016460F46F84D2868426885
:10480000A98889008A18921E1288D300C268D3181A
:1048100005939C88002C64D07C230493EB5C002BD4
:104820002CD0A86F301A4B218900FEF7EDFF03460C
:10483000019002962E6F686FF217C117801B91418D
:1048400000251A462B46FBF7B9FC0A0D8018694172
:10485000000B0905401830180390E048C66EF117A8
:104860003046019A2B46FBF7A9FC0A0D80186941D6
:10487000000B09054018351A029E0DE0059B1C1D12
:1048800040680818801E0088C0001018E988FFF7EB
:1048900093FF03902488002538462146FBF764FCEB
:1048A0000029CE4A1DD0069B98032818D06603988D
:1048B0001067002B154600D5494260000818E988AA
:1048C00040182146FBF766FCE98089B20598FFF79E
:1048D00073FFFF21583101226A5404996A546867B2
:1048E000AE6707B0F0BDC046F0B583B013460E46C4
:1048F0000290FB4F38684168BA8892005118891EAF
:1049000009880C244C43C5690193184600F03CF813
:104910002A59F968002A04D01278002A01D03022DE
:1049200000E040222B191B891B019A1A01D8002292
:1049300000E01202002E25D0002A23D03303029C6F
:10494000002C04D4541A9C4204DDCA1802E0CA1A8E
:1049500000DC00228A4215D08E2101237B54802165
:104960007850FF2058303B54FA6038468030B421EC
:1049700081810021416001998160D017000D1018DC
:10498000000B388103B0F0BDB0B58E21D44C615C12
:1049900000291AD0214680318A68801A8989FEF759
:1049A00033FF024680202558EB17E068C117401BF3
:1049B000994100242346FBF701FC0A0D8018614150
:1049C000000B090540182818B0BDE068B0BDC0460E
:1049D000F0B583B00B468E21C14D695C002932D001
:1049E0002C468034A168401AA18902920193FEF7F7
:1049F0000BFF0346009080202E58F217E868C1177D
:104A0000801B914100271A463B46FBF7D7FB0A0D56
:104A100080187941000B0905401830180199086089
:104A20006468E2172869C117001B9141009A3B4650
:104A3000FBF7C4FB0A0D8018029A7941000B0905A7
:104A40004018201802E0E86818602869106003B078
:104A5000F0BDC04668020020F0B50022002918D041
:104A60008389002B15D08068002425462246002823
:104A7000264606D0AE08875DAE07760FF7400326C0
:104A80003E40012E00D0521C6D1C8D4201D09D4233
:104A9000EDD390B2F0BD0000F0B587B00092029166
:104AA00003908F4A10684168928892005118891EBD
:104AB0000988090140694418204600F091F80490E3
:104AC000A089002813D02546A1680126002213469C
:104AD000002906D0062414409F08CF5DE740BC079C
:104AE00000D1761C921C5B1C9842F1D101E0254656
:104AF00001267B48C1882846FFF7AEFF044602988E
:104B0000002869D0300467D006A905AA0098FFF7ED
:104B10005FFFB1B20298FBF727FB00295CD0284663
:104B20000C3002952F4608370688049A01910398A5
:104B3000002806D4A0B2401C1146FBF715FB0C461A
:104B400004E0200400D02246501E84B2A5B2029890
:104B5000294600F061F886420BD03968002909D057
:104B60008208895C8207520FD1408907049ADED1FE
:104B700001E03046049A5A49C8800199491E080448
:104B8000D4D1574E3089A84203D8C11CA94202D8BB
:104B9000A41E34812046032A00D80322D11E8AB2E3
:104BA00083B2934201D9318108468021069A72501E
:104BB0008E2101227254FF215831725431468031C6
:104BC000C8228A81059A4A60009A8A6080B20103ED
:104BD000281A0003F160306107B0F0BD68020020C0
:104BE00070B58189002914D08268012000231C46F9
:104BF000002A1D4606D0A508565DA5076D0FEE409C
:104C000003253540012D00D0401C641C8C42EFD19F
:104C100000E0012080B270BDB0B502468089002856
:104C200013D093680022002B08D094081C5D9507D0
:104C30006D0FEC4003252540012D02D00C0406D059
:104C4000491E521C8242EED1B0BD0020B0BD90B2D0
:104C5000B0BD0000F0B582B001920A4620490C4672
:104C6000543400900546C9CDC9C46A2400200855B3
:104C700069200A54682201208854FF252A461232EE
:104C80008A5C531E9A412B462233CB5C5E1EB34195
:104C90005B009A1857239B00CE5C16432A4632329B
:104CA0008A5C571EBA4192003243CA54019A4A663E
:104CB0000A68002A10D0009B1B88002B0CD0168994
:104CC0009E4209D35268002A06D09B009A18121FF0
:104CD0001278032A00D108555835485502B0F0BD66
:104CE0006802002000B5BBB003202490FCF7C8F890
:104CF000F14E00280FD1306C012108433064306C34
:104D000008402B902B980807F16B0143F163F16B7E
:104D100001402B912B98E94D286801273843062440
:104D2000A0432860B0688006400F14D00720C0025E
:104D30003168814331603802316801433160E048B5
:104D40000168E04A19323368134220D103685B1AC4
:104D5000022BF8D919E07F200002716881430120FD
:104D60008003081870600720C002316881433160F9
:104D700030688004400FD449C140D4480160D44811
:104D80000068FCF77DF8002808D072B6FEE77F20A7
:104D9000000271688143B803081870602394286882
:104DA000400721D07B200002B16881430B20229074
:104DB00000020818B060B068C6490840B0603068AA
:104DC000C049193108424CD0B0680724A043B060F4
:104DD000BB4B1968C048B2689206520F17D01A68C8
:104DE000521A8242F7D93CE02868012101432398F6
:104DF00081432960B2480168B74A2B6807241C40E8
:104E0000012CCFD003685B1A9342F6D929E02968B8
:104E10004907890F0ED029683943239A91432960A5
:104E200019682A682240012A04D01A68521A82425C
:104E3000F7D916E02003B1688143B160FCF7FAF8B6
:104E4000B16889093C252940A44A51581F220A40CB
:104E5000D0409E4908609E480068FCF711F8002881
:104E600001D072B6FEE71D9500202F9002462190DA
:104E7000706B022108437063706B0840269026987F
:104E8000706B38437063706B38402690269805200D
:104E900005073020A8622E921E912D912C971A9012
:104EA0002B902BA91F912846FBF76AFD21982D9086
:104EB0008B482C90402020902B901C9528461F99C1
:104EC000FBF75EFD87490868874A104008608749FC
:104ED00080201090086086498648874D0D601F909D
:104EE000486021988860CF60084610301421FBF795
:104EF000BBF97F4A4123D05C0028384600D191E0BD
:104F000024212391D1542968B94329600F2109062E
:104F10001F9A8A432A61A968784A1140A96001282A
:104F20001B9407D17648401C21990143A960291D93
:104F30006A680CE021218902219A0A43AA60291D8E
:104F40006A68022803D16F483130024302E0012031
:104F5000C00282430A6068686B4901436960E8687F
:104F600066490840E860624A1069516901439069E6
:104F700000020843E860D069116A0143296028688B
:104F80000127384328600024546420202190D05405
:104F90001463422014542098105CD15C20293FD126
:104FA00001283DD0524A2398D0542868B84328603D
:104FB00038032968814329602868286028683843B5
:104FC00028602198D05420991F945454D05C2028F4
:104FD00040D12398D0541F9C54542868B84328606B
:104FE00028683C49084028602868384328600E93A8
:104FF0002198D0542BA81C21FBF736F9434DAC6106
:105000004348444912C52C606860AC60083DFCF719
:1050100093F81D9AA85C012800D07FE072B6FEE7E5
:1050200072B6FEE70E9300252098155426A8142189
:10503000FBF71AF92BA821901C21FBF715F91F95F6
:105040002E951E9D2B952198FBF748FF002803D035
:1050500072B6FEE772B6FEE7706B28437063706B42
:105060002840259023982A901F9829902890122054
:105070002790C02026902598274826A9FBF780FC7A
:1050800001204105F26B0A43F263F26B0A4025925C
:105090002599144A1169144B19401161C00513492F
:1050A000086013490D6848681F9088682190C86897
:1050B0000E9B0A4624E7C046001002400020024032
:1050C0009C0C0020E7030000006CDC0200000020C4
:1050D00020000020FFF0FFFF88130000B8720008D6
:1050E0000000111004E400E0FFFFFF0000E100E019
:1050F000600000204B19900000540040FF7FFFFF2C
:10510000FF7F0000CF07000000800002B4000020F5
:10511000FFFF0000000400400004005029463D2528
:105120001E9848558F5408684268E149884201D169
:10513000E04B1A40159570239A4383684260884279
:1051400002D0DD49884202D110998B438360DB4D48
:105150001D982C5415982F542F942D942C94602521
:105160002B952BA8FBF790FF002801D072B6FEE725
:105170001D9526A81421FBF777F8D0480068CE4982
:10518000884214D1706B012108437063706B084032
:10519000259022982A900020299028901E982790E8
:1051A00008022690259826A91C98FBF7E9FBC44D18
:1051B0000C22C448E1214E0241C52C606C60AC60F9
:1051C0002292EA60083D284618301421FBF74CF87B
:1051D0002846FCF719FA002801D072B6FEE71996A6
:1051E0008421685C012801D172B6FEE788262398E5
:1051F000A8516F54286802681692FA4318921791C2
:105200000168114001601B99490782688A438260E6
:10521000FFF7FEF92868169901602199A951239991
:10522000A95117996F54016816910168189A114095
:1052300001601B99490682688A438260FFF7E8F99A
:105240002868169901602199A9512399A9511799A4
:105250006C5401680268189B1A4002607A079143F7
:10526000016017962198A8516C66F848F8490160CA
:10527000199941608460C46004612299416184612C
:10528000C461F649491C81630821046244620391A8
:105290008162FCF7B9F9002801D072B6FEE7F04848
:1052A0000770F0480470F0480470F0480470F0484B
:1052B0000470F0480460F0480068F0490860F04865
:1052C0002146CA0084548218546000293946F8D017
:1052D000EC4800250570EC480570EC4805702E95EB
:1052E00001242D94EA482C9020982B902F952BAEDA
:1052F0001C9F38463146FBF743FB2C9510982B90AA
:1053000038463146FBF73CFBE2480470E248057042
:10531000E2480570E2480570E2480570E248056021
:10532000E2480560E2480560E2480580E248056021
:10533000E2480560E2480560E2480570E248057011
:10534000E2480570E2480570E2480570E2480560F1
:10535000E2480570E24820263146FAF785FFE14829
:105360003146FAF781FFE04816963146FAF77CFF9E
:10537000DE4833218170239141701E990170DC4F0A
:105380003878002824D1DB490120087038700026C5
:10539000C3480670C34806700320FBF72FFC0028A3
:1053A00006D03E70D34806701E98BE4908700BE0C8
:1053B000B14A10683978002906D01168091A3229D3
:1053C000F8DB3E70CB480670B6480078012801D063
:1053D000B04805703F20022114901F91FDF764F939
:1053E0000028284621D0A44A10683978002907D01F
:1053F0001168091A3229F8DB00203870BD4908709D
:10540000A8480078012828460FD1A4480078002831
:1054100028460AD00020A1490870B7484178007892
:1054200000024018A34908802046B4490D709949EC
:105430000870B3480570FDF76BF9B2490860B249CE
:105440000860B248007800286DD1B14D2878002856
:1054500069D10124E102AF48FAF706FF0026AB4804
:105460000670AD480470AD480670AD480470AD4894
:105470000670AD480470AD480680AD480680AD4862
:1054800010990180AC48209901802878002844D1E7
:1054900001202870784A10681168091A6529FBD321
:1054A000A648162101F0A6FD00280DD02E7033E08D
:1054B000002C01408FFF0FFF00040040B4000020CB
:1054C00000010020003801409D4C37461021A1709A
:1054D00066702BA8817046704F21C94339432170F3
:1054E0000170032101F086FD002813D18021954829
:1054F00001F09CFD00280DD1781C072F0746E5D34D
:105500002BA8AF210170012101F074FD002801D109
:1055100001F0A3FB002028701F9C8B4804706042A0
:1055200060418A4908708A482F210027894A97617B
:1055300051609760D0606042604187490870FBF716
:10554000FBFD319730972E972F972D972C971D980D
:105550002B902BA8FBF798FD002801D072B6FEE730
:105560007C480068C169039A1143C1617B48077098
:105570007B4807806C48012101706C4807806C48AB
:1055800007806C4A109810806B48209A02803A4C31
:105590002068744A10606048007880025D4A1018E4
:1055A00022918902FAF760FE6F4800901C200521C5
:1055B00048223623FEF7EEFDFEF734FF20686B4BE2
:1055C0002168091A1A46CA329142F9D3684807700D
:1055D000684847700770206867490860674C201D5D
:1055E00057211391890004900891FAF73DFE644811
:1055F00020602298C643634930460A78032A00D9BE
:10560000F9E0C0467A44127952009744010101043E
:10561000002800D10CE1401C091D0328EDD15A4897
:10562000011D00200A68002A00D1F3E00C31401C63
:105630000428F7D15548811D00208A5D042A00D92D
:10564000E8E004A39A5C52009744C046940100200D
:1056500000440040A2A6E4E4E400C046FF7F00004E
:10566000E2030020E3030020E4030020E103002024
:10567000E0030020DC0300209C0C0020CC03002071
:105680005802002047000020510000205000002058
:10569000000011103E0000203D00002041000020CD
:1056A000950C0020520200205C00002054000020D5
:1056B0002C02002042000020C40C002054020020D4
:1056C0008C0C0020C00C0020500200206C0C00202C
:1056D000C10C00205102002058000020880C00203E
:1056E000A00C0020300200204C0C0020960C002062
:1056F0002802002029020020920C00203500002002
:105700003C00002000040020380000200404002099
:10571000200C00200804002010000020480C00206D
:1057200012000020440C002011000020080C002072
:105730000A0C00200C0000200E000020F872000867
:10574000210C00200E730008460C0020450C0020A0
:105750001F4E0000B4000020470C0020460000202F
:1057600044000020D0030020B0790008E7030000C7
:10577000820C00203F000020840C002068020020E2
:10578000C8730008287C00085074000828740008BA
:105790000A88521E052A3DD20831401C032800D039
:1057A0004BE701252846FEF78DF9FF2001465831C9
:1057B000FD4A5554543015541268002A229845D099
:1057C000F94881880029229840D01089884222987F
:1057D0003CD35268002A229838D088008018001FD5
:1057E00000780328229831D1AD2040000021EE4AF4
:1057F000115422982AE0FF225A320123EA4CA35482
:105800004F229200249BA354A21849889180C01C67
:1058100050801AE0FF215A310122E34B5A544F21A4
:105820008900249A5A5459188880002048800DE035
:10583000FF215A310122DC4C62544F218900249B04
:10584000635461188A80C01C48803846D74C217840
:10585000D74A1170D7490870D7480770D7480760F2
:10586000D7480770D7480760D7480770D748076000
:10587000D7480770D7480760D74D2868D7490860D0
:10588000FCF746FFD6490860D64807702868D64915
:1058900008602868D5490818401CD5490860D5A07B
:1058A00001F082FCDCA001F07FFC2078002801D010
:1058B000DE4800E0DE4801F077FCDEA001F074FC79
:1058C000E04C218826AD284601F0B2FC284601F0C4
:1058D0006BFC2088DC49884201D0DCA000E0E2A01B
:1058E00001F062FCE6A001F05FFC2BA83121017100
:1058F000239AC27081701A99417037210170001D7E
:10590000017826AAD1553018401C7F1C052FF7D1ED
:1059100026AD00201A906871284601F045FCDBA0F6
:1059200001F042FCDA4801F03FFCDA490422284643
:105930000692FAF71FFE284601F036FCD64801F021
:1059400033FCD64801F030FC3C21284601F070FCC5
:10595000284601F029FCD24801F026FC40212846C7
:10596000079101F065FC284601F01EFCCD4801F0CE
:105970001BFCCD480078002801D0AC4800E0AC48C2
:1059800001F012FCC94801F00FFCC9A001F00CFCA9
:1059900088480078002801D1C7A000E0C94801F07C
:1059A00003FCC94801F000FCC84801F0FDFB2BA82E
:1059B000001D12907D200A90C00009900120010274
:1059C00011910F90C0050290FF20239000060590D2
:1059D000BF4F794CBF48007800281A9800D1B8E032
:1059E0000020BC490870BC48007807283BDC05282B
:1059F00049D007280F9800D0ABE0B84B19780804BD
:105A00005A78120210189A788018090601D505995B
:105A10000843C117090F40180011FAF72EFD9D49E0
:105A2000FAF786FCAE4D2A789300AE4EF158F0504E
:105A3000521C1B9B1A402A70FAF772FC0146AA4EB0
:105A40003068FAF71CFC054630603878072801D822
:105A5000401C3870C0B2FAF71BFD01462846FAF721
:105A6000A4FCA24971E008283DD03F280F9870D1CE
:105A700001204E490870994A517812781202511843
:105A8000704A118065E0954A107800045178090247
:105A90000818917840180009FAF7FAFCF449FAF767
:105AA00047FCF44D2A789300F34EF158F050521C05
:105AB0001B9B1A402A70FAF733FC0146EF4E306800
:105AC000FAF7DDFB05463060ED490878072801D874
:105AD000401C0870C0B2FAF7DBFC01462846FAF712
