:020000040800F2
:10000000A0140020D5000008A93A0008251A00080D
:1000100000000000000000000000000000000000E0
:100020000000000000000000000000004343000842
:1000300000000000000000004143000845430008A4
:10004000E700000800000000E7000008E7000008E3
:10005000E7000008E7000008E700000819080008AA
:1000600000000000E7000008E7000008E7000008C3
:10007000E7000008E7000008E700000800000000B3
:10008000E70000080000000000000000E700000892
:1000900000000000E7000008E7000008291A000837
:1000A00000000000E7000008000000008144000894
:1000B0009144000800000000000000000000000063
:1000C0000348854600F03EF800480047114A000802
:1000D000A01400200448804704480047FEE7FEE7DC
:1000E000FEE7FEE7FEE7FEE755430008C100000813
:1000F000421E5378521C002BFBD10B781370491C05
:10010000521C002BF9D17047421C0178401C002979
:10011000FBD1801A704710B5002200E0521C835CAE
:100120008C5CA34201D1002BF8D1D8B2E1B2401AC5
:1001300010BD03460A780270401C491C002AF9D100
:10014000184670471CB509480090094801900546BB
:100150000126009C05E0E36807CC33430C3C98473C
:100160001034AC42F7D3FFF7AFFF00006C75000806
:100170008C75000830B5434351435C18010C130CD7
:100180000D465D432C1980B292B20546554351434A
:100190000A0C09044D1962415843010C000440192E
:1001A000514130BD03460B439B0703D009E008C90A
:1001B000121F08C0042AFAD203E00B780370401C17
:1001C000491C521EF9D27047D2B201E00270401CA5
:1001D000491EFBD270470022F6E710B513460A46C7
:1001E00004461946FFF7F0FF204610BDF8B5024659
:1001F0004A40D40F42004B0052085B089A4202D298
:100200000246084611464A0023D0C30D4A00DDB21B
:10021000120EAD1A202D35DA49020126490AF605DB
:100220008A19002C00D0524220214F1B1146B940A0
:100230002A411018C20D9A4221D0002C17D0012D4E
:1002400008DCDA05801AD20F8019D207DBB200F081
:1002500045F9F8BDDA05801A012340001B06C018D5
:1002600080185A428018CA0F1043490007E0490815
:10027000C2071143DA05801A80194008801800F07F
:1002800025F9F8BD61000122511A001BF7E7012290
:10029000D2075140AAE70122D2075040A6E7024602
:1002A00070B54A40D30FDB0740002DD04A002AD05A
:1002B000010E140E000212020919400A520A841893
:1002C000E50104465443000A120A2E045043A419BF
:1002D0004219200CC543AA18120C0125AD03521C6B
:1002E000521912047F39240400D0521C104301D447
:1002F0004000491EC2B20C06C0092018401C40082C
:10030000802A02D003E0002070BD40084000002990
:1003100000DA0020184370BD70B502464A40D50F80
:1003200040004A00ED0740085208002814D0002A77
:1003300012D0C40DD30D41020120C0055202490A5A
:10034000520AE41A091812187D34914201D3641C30
:1003500000E04900002C01DA002070BD002391422A
:1003600001D3891A0343400849000028F7D1002926
:100370000AD0914202D10121C90705E0914201D280
:10038000012101E00121C943E005C018401900F036
:100390009DF870BD0122D207002800DB101A002949
:1003A00000DB511A814201D80120704700207047BC
:1003B0000122D207002800DB101A002900DB511AA5
:1003C000814201D301207047002070470122D207EB
:1003D000002800DB101A002900DB511A814201D9E4
:1003E0000120704700207047C217C10F504010B560
:1003F0004018CA079623002100F070F810BD10B510
:1004000000229623114600F069F810BDC20F41008A
:1004100040020123400ADB05D207090EC0187F29DC
:1004200001DA00207047962903DC9623591AC84048
:1004300001E096398840002AF4D04042704770B5F8
:100440000446002903D000202022012310E00028C8
:1004500001D00020C043C046C0460DE02546D5402F
:100460008D4205D30D469540641B1D4695404019AD
:100470001546521E002DF1DC214670BD70B50025D9
:1004800004462E46002911D0002C01DA01254442F1
:10049000002901DA012649422046FFF7D0FFB54284
:1004A00000D04042002D00D0494270BD002C02DA3D
:1004B0000121C90702E0002C00DD03490846C046BF
:1004C000C046214670BD0000FFFFFF7F002904DA0F
:1004D000401C490001D140084000704770B400241E
:1004E000050C05D11024000402D1002921D01124CB
:1004F000050E01D100020834050F01D10001241DB1
:10050000850F01D18000A41C002801DB4000641C81
:10051000002908D020252E1B0D46F540A14000D013
:1005200001212943084301061B1B000ADB1D02D5DC
:10053000002070BC7047DB05181880180029F8DA15
:10054000401C4900F5D170BC4008400070470000D5
:10055000F0B585B014460E460546901EC0B2800028
:1005600035A108580190002730463946FFF720FF93
:1005700002A9002805D12D2028700120C00746407F
:100580006D1C0198FFF73BFF01463046FFF787FEE1
:100590003F210906FFF72AFEFFF738FF0090019977
:1005A000FFF76CFF0646019870430190002E12D0B1
:1005B000012E0EDB0A213046FFF741FFF6214143B1
:1005C000891930220A43F9B202AB5A547F1C0646FD
:1005D000EEE7F8B203E002A8302101700120019992
:1005E000009A561A02A9491E002804D00A5C2A70F3
:1005F0006D1C401EF8E72E2028702746002F0DD0D6
:100600000A213046FFF71BFFF621414389193022AA
:100610000A437F1E02A97A540646EFE700202918F4
:10062000844204D002AA125C4A70401CF7E7002002
:10063000487005B0F0BDC04664000000E80300004B
:100640001027000080B5432817D0532807D058281A
:100650000CD0632811D0782808D0732816D100F068
:100660005DF82D4800F01CF82A480DE000F096F8DF
:10067000274800F015F8254806E00548007B0028CB
:1006800004D002F0CDF803A006F0E8F880BDC04623
:100690002000002052452D43414C2E2E2E0D0A00E5
:1006A00050220E49602A03D020238B54521CF9E7B4
:1006B000602200238B545022602A07D08318503BBD
:1006C0001B78002B02D08B54521CF5E77D200001D3
:1006D000E8494A6C101888677047C0469C000020A3
:1006E00010B52020E349085C002804D000F056F83B
:1006F000064C074803E000F011F8064C0648FFF7E7
:10070000CFFF204606F0AAF810BDC0466F73000860
:10071000AD74000843730008D574000870B520203C
:10072000D4490A5C002A00D070BD354B1A687D247C
:10073000E400D4630C8640241D5D012D26D10225E2
:100740001D5501231C02156AA5431562156A254330
:100750001562104CA2420ED02B4CA24205D02B4D5C
:10076000AA4202D02A4DAA420DD1DD03566C2E4377
:100770005664A24207D19568074C2C40062C05D040
:100780001D04AC4202D014681C43146001220A54B8
:1007900070BDC0460004004007000100B0B5012153
:1007A0000B02174A1068046A9C430462036A0362DE
:1007B000144B154CA04205D0144CA04202D0144C4E
:1007C000A0420AD1046A1C4207D1046A114D2C428E
:1007D00003D1CC03456CA5434564046A1C4206D191
:1007E000036A0C4C234202D103688B43036040230D
:1007F000D1542021F04A002353541386C363B0BD63
:10080000C801002011111100002C014000480140D6
:10081000004401404404000007480168490604D52B
:1008200040210160E44901228A714168490601D5ED
:10083000402141607047C0460C18024072B6FEE786
:1008400070B5014624314A78022A2AD103681A6811
:100850000E24A2431A601C68012294431C60446C5D
:100860002568124B1D402560046C1C25254014464C
:10087000AC400F4D2E6826432E60846CC56C6560BD
:10088000046D002C05D025681D402560436D846DE6
:100890005C6000240C704A70816B002904D088478A
:1008A00002E00421C1630124204670BDFFFEFFFF6A
:1008B00004000240C0494A6C4B6C9B1A8342FBD92E
:1008C0007047C046F0B58AB002465C48824201D00B
:1008D000062000E0052000900492203201920026BC
:1008E0000996354632460C682046D04000D1A3E038
:1008F000079601230593089293401C40029400D16F
:1009000091E006954F681020384312280D4611D10A
:100910001C21079801400F2427468F400898C008E3
:100920008000019E3258BA432F6927408F401743F9
:1009300037506F68032638463040099A9040314658
:100940009140049C22688A4302432260C84303907A
:10095000122F2946069D17D80598B8403A4A1042EA
:1009600010D0049CA068039A1040CA68099DAA4050
:10097000069D0243A2603809089A904062689A4333
:1009800002436260032F4ED0049CE068039A10403B
:100990008A68099B9A400243E260F80043D50898B0
:1009A000B043274A13181C6E05200007049A8242A0
:1009B0000AD02648824205D025488242009E04D1B2
:1009C000022602E0059E00E00026182028400F22A3
:1009D000824094436033864026431E601948026873
:1009E0004B68D80302D5029C224301E0029CA2433B
:1009F000144802604268980301D5224300E0A243F4
:100A0000104842600E480268D80201D5224300E037
:100A1000A2430B4802604268980201D5224300E0DD
:100A2000A24307484260079E361D0998801C099022
:100A30000835089A521C56E70AB0F0BD0014005061
:100A40000018024080180240060006000004005012
:100A5000000800502E49884200D07047E348817E4C
:100A60000129FAD101214173C172002141768176B9
:100A70007047C046200000207CB52549884200D040
:100A80007CBDDA48817E0129FAD1417A002913D050
:100A900000254572817A4122B84CA35C202B07D1F6
:100AA00023689B691B0403D44026A35D012B09D155
:100AB0000221C172057301E00121C172002141765A
:100AC00081767CBD2223A35442221023A354012209
:100AD000A255656461853649E162364961633A3001
:100AE0006062608DFF2802D91306FF2001E05306E3
:100AF000608D208507490091C2B28021204601F017
:100B0000E5FDA5550221204601F006F87CBDC04652
:100B10000054004000240080F8B54122974DA95CA4
:100B2000022420293AD129688B691B0436D4402637
:100B3000AB5D012B32D02123AB5442221023AB54A6
:100B40000123AB5500246C6468851948E862194894
:100B50006863E74802463D326A626A8DFF2A02D91D
:100B60001B06FF2204E06A8D2A85002A18D05B0646
:100B70003D27C75D8F623E306862501E2885688DB4
:100B8000401E68850E480090D2B28021284601F0B0
:100B90009DFDAC550121284600F0BEFF2046F8BD62
:100BA0004868774A0240054810184860F1E7C04697
:100BB0000000FFFF1122000820000020802000021A
:100BC00000200080F0B587B00E46074641216B4BF0
:100BD000585C0224202845D1002E40D01546002A1A
:100BE0003DD04022985C01283CD0059101249C54C2
:100BF000BF48436CE003069219222146049301F09A
:100C0000AFFD00282ED1212005995C4A5054422086
:100C1000039006991154002050645585566206468B
:100C2000506310684168564A0A405649511841605D
:100C3000049D284601F0CCFD00280CD14F480068E7
:100C4000F9B2816280200027642239462B4601F0E8
:100C500087FD002809D049480699465402E001243E
:100C600060025864204607B0F0BD0124660643497F
:100C7000488D000A444A454B0846029707D0FF2199
:100C800001850068416819401143416007E0418DCA
:100C900001850097CAB27821334601F017FD374627
:100CA0002E46284601F094FD0028DBD1334B18680E
:100CB000596A0A788262588D401E5885481C5862CD
:100CC000188D401E1885598D002923D0000421D18C
:100CD00080202B4600256422294601F041FD002892
:100CE000C0D1264B588D000A09D0FF2018851868FE
:100CF0004168264A1140244A1143416009E0588D59
:100D000018850095C2B2782118463B4601F0DEFCFA
:100D10001A4B3546588D0028C3D1184A744D1068B7
:100D2000816989061BD464203746314601F07EF97B
:100D3000002897D1686CC01B6528104AEFD3106853
:100D400080698006EBD4506C2021084350640598DC
:100D500011540020069950540399505482E72021E1
:100D6000C16142680A4B13404360044E05983154F8
:100D70000698029C34540398345473E7740100209D
:100D8000009800FC782001017800FF01009C00FC25
:100D900000E800FEF8B50446654880687D21C9007A
:100DA000FFF74DFB421E0E494B1C01209A4216D202
:100DB0000C4E72600C4A13680B400325AD075B199B
:100DC00013600023B36007273760032C07D810682F
:100DD0000840284310604648012101701846F8BDBC
:100DE000FFFFFF0010E000E020ED00E02000002009
:100DF000F0B585B003685906D34A01D4002145E017
:100E00000126350711682940039106D1116829434D
:100E100011601168294004910499032102910C0288
:100E2000176A27408169314C12D001918F4222D03C
:100E30002146146A3604176A37431762176AB743A4
:100E4000176226460E401662E40703D1019F11E0A7
:100E50000F4610E00095264E776C264C156AAD07BC
:100E600006D4756CED1BA542F8D9009D029907E0E8
:100E7000019F009D1D4C116A2140394311620021E0
:100E8000039C002C02D11468AC431460DC0705D02D
:100E900094690325AC438568254395619C0706D575
:100EA000032424039569A543C4682C4394619C06DC
:100EB00006D50324A4079569A54344692C4394618E
:100EC0005C0706D50324A4039569A54304692C4354
:100ED00094611B0606D53C3A1368E024A34340689E
:100EE00018431060084605B0F0BDC046FFFCFFFF88
:100EF000200000208813000080B500F02BF80A497C
:100F00000A6892093C231340084AD2581F231A400A
:100F1000D040074A90600968890A1C220A4005A14E
:100F200089581940C84080BD0810024090690008E7
:100F30000000002000000000000000000000000091
:100F4000000000000100000002000000030000009B
:100F500004000000114801688906490F06D00268A4
:100F600038210A40082A08D10D487047083800681F
:100F70008004410F0B48C840704702680A40202A8D
:100F800002D10120C003704700680840182801D032
:100F9000002070477D2000027047C04608100240C4
:100FA00000127A00006CDC02FEB53C23634AD15C7F
:100FB000012901D1022147E01268116A0126350298
:100FC000176AAF4317627502A94385682D020D4366
:100FD000516804680294D7695A4CA24207D05C4C0D
:100FE000A24211D05B4CA2420ED00E4614E00093F8
:100FF000B3020193146A019B9C43009B1462F402A8
:10100000A543C4682402254303242403A14344695F
:101010008669264336010E430021484CE154566050
:101020000A4B1F40029B1F43D7614368D36315627D
:10103000D36908241C43D461D3690424A343D36136
:101040000069D3690343D3610846FEBD8CFFFEFFF0
:10105000F8B53D2039490B5C0A68394C394D002BF5
:1010600004D13C230026CE54A2420CD002230B54C0
:10107000561B734273411668AA4212D17024A643CC
:101080008D68354321E0304B1E6802273E431E60C9
:101090001B683B400093009B0F54551B6B426B41F8
:1010A0001668A24201D0354603E07025AE438D6834
:1010B0003543A24209D0254CA24206D0244CA2427C
:1010C00003D0244CA2422C4604D103242402A5437D
:1010D0000C692C43CD68D5624D6895628D69002BF3
:1010E00005D11B4B9A4202D01A4B9A4201D14B694F
:1010F0001363136804261E43166001235361802680
:10110000B4432C43BFF34F8F146048228B543E22CC
:101110008B543F228B5440228B5441228B544222C9
:101120008B5443228B5444228B5445228B544622A9
:101130008B5447228B540B54F8BDC046C801002085
:1011400000040040002C01403C1002400020004000
:101150000048014000440140F0B587B007460068F0
:10116000C369016806913A4680320492826801267A
:10117000F5022C460F342342059667D00397C04FE3
:1011800006990F403607741C1440E719039F67D077
:101190000296DF0709D00699CF0506D505990162A9
:1011A000049E376905990F4337619F07049E0BD54D
:1011B000D70709D002270762049E366901960427E3
:1011C000019E3743049E37615F0709D5D70707D0D3
:1011D0000427076231690191022701990F433761A2
:1011E0001F0709D5202706990F403C4304D0082447
:1011F00004623769274337612B4207D006994C01B7
:1012000004D5056234692025254335613469002CF5
:10121000039D059E79D09B060CD520230699194085
:10122000029B1A400A4305D0696F002902D0284664
:1012300088472868049B196928220A40806840244E
:10124000204080183BD1002018615EE09C0607D545
:10125000202406990C40059D2D07154064194FD197
:10126000FC6E012C04D1DC0602D50699CC064ED4C6
:10127000DC02059E01D554021ED4180606D5802036
:1012800006990840F4052240801837D158063CD50D
:101290000698400639D5EFF3108086F31088396838
:1012A0000A6840239A430A6080F310880020B867D8
:1012B00020200499886028E03105016225E0284655
:1012C00003F078F82868806840061ED5EFF3108098
:1012D00086F3108829688A68A2438A6080F31088A0
:1012E00004980068002810D066498163FFF7A8FAC7
:1012F00000280AD004980068816B05E0B96F00E00F
:10130000796F002901D03846884707B0F0BD3946CB
:101310005C311022026280684006059E30D4488805
:101320000B8849880029F0D08342EED0EFF310807B
:1013300086F31088544920393B681C680C401C60B7
:1013400080F31088EFF3108086F3108839688B687B
:101350004F4C1C408C6080F3108820200499C8609A
:1013600000207867F866EFF3108086F310883968FC
:101370000B6893430B6080F3108802203867C4E742
:101380000B880498006800684468A5B2002D67D0F7
:101390009D4265D24C80006880066DD4EFF31083C7
:1013A00086F310883C68256837480540256083F33C
:1013B0001088EFF3108386F310883C68A568B54366
:1013C000A56083F31088EFF3108386F310883C68E0
:1013D000A56803974027BD43A56083F310882023A9
:1013E0000498C3600024039B0694DC66EFF310842A
:1013F00086F31088039B1D682F6897432F60039F17
:1014000084F310880468002C36D0224624325578A4
:10141000022D2DD1256833462E680E27BE432E603F
:10142000666C37681848074037602E689E432E6008
:10143000256C1C262E40B340144E37681F4337607E
:10144000A56CE66C6E60256D002D05D02E680640FB
:101450002E60656DA46D6C60059B5370039F09E061
:10146000AB4200D051E70068800600D44DE784E726
:101470000420E0630698107002203867488844E72B
:1014800020010004B1430008FFFEFFFF04000240FA
:10149000FEFFFFEFF0B591B0002837D004460646B6
:1014A0006836074688373868002803975FD10025DB
:1014B00035770CA81421FEF78EFE05A8001D182113
:1014C000FEF789FE2068D649884221D0D549884256
:1014D0004DD137460126059605A8FFF789FC00285F
:1014E00000D09AE1B003D049CA680243CA60CA6812
:1014F000024004920498086830430860086830404D
:10150000049004981B260420032115E0012781E1A3
:10151000374601204104C44A93680B4393609368A3
:101520000B40049304991168014311601168014054
:10153000049104991C260C2110900F950E95022001
:101540000D900C91052000070CA9FFF7BBF9B0071F
:10155000C00EFF2181401C203040B44A83588B4389
:1015600083500120B040B24908603E46039F2420CA
:101570003860206801680127B9430160A16A002929
:1015800048D00A0705D5FA0343689343A26B1A4370
:101590004260CA0705D07A0443689343E26A1A435B
:1015A00042608A0705D53A0443689343226B1A4385
:1015B00042604A0705D5BA0443689343626B1A43F5
:1015C0004260CA0605D53A0383689343E26B1A4327
:1015D00082608A0605D57A0383689343226C1A4396
:1015E00082604A060ED53A0543689343656C2B43E7
:1015F0004360954206D10322520543689343A26C8F
:101600001A434260090605D5F90442688A43E16C31
:10161000114341600168874A0A40A16823690B436E
:1016200065691D431543E1690D430560032202927C
:10163000120343689343E2681A434260A269236A33
:10164000134382687C4D15401D438560C26A0F2399
:101650009A43656A2A43C262714A904209D0714A2C
:10166000904208D17048006A8007000F73A2125898
:1016700002E0002200E01022F80381420ED1082A85
:1016800000D990E07A44127952009744048C178C68
:101690002B8C8C8C3000FFF72FFC25E0082A00D91A
:1016A00081E0C0467A44127952009744047C117C50
:1016B000357C7C7C3A00FFF71FFC2FE05A48343819
:1016C00000680006400F411C6048FEF7B8FE0EE0BF
:1016D0005548343800680006400F411C5B48FEF74F
:1016E000AEFE1EE0FFF736FC00282BD0656A6900CD
:1016F000574A515AFEF7A3FE400061684A08101885
:10170000FEF79DFE0246103A52498A424BD20140F2
:101710000007400F084313E0FFF71CFC002811D01E
:10172000656A69004A4A515AFEF789FE61684A08AB
:101730001018FEF784FE01461039464A914232D213
:101740002168C86009200090C102206842688A436D
:10175000426081682A2291438160016839430160B7
:10176000002503998D603C49019631606567A56746
:10177000AA494E6C016809071CD57905374B2046EC
:10178000324602F047FE002813D0EFF3108087F3B3
:10179000108821680A6880239A430A6080F31088C1
:1017A0002021882029E02C48306000206067A06755
:1017B00030E020680068400721D5B905274B204656
:1017C000324602F027FE002819D0EFF3108087F38D
:1017D000108800994901226813688B43136080F3D5
:1017E0001088EFF3108087F3108821688A68BA4365
:1017F0008A6080F3108820218C20029F07E020203F
:10180000039908604860E566702029462F462150FC
:1018100001980577384611B0F0BDFFF70FF8C046C4
:1018200000440040003801403410024000E400E071
:1018300000E100E0F369FFCFFFF4FF1100000000BA
:10184000040000000200000008000000006CDC0240
:10185000666A0008F0FF000001000100FFFFFF01C1
:10186000F0B585B005468C202858202823D10029C2
:1018700023D02E465C362C468C34AA680120030304
:101880009A42009004941AD12A69002A01D1CA0709
:1018900062D100206060222222600190E86601226D
:1018A00032805E4B586C03907280B41C2A69002A07
:1018B00054D0FF201DE002204EE001204CE0002724
:1018C0006760222323600197EF663080534B5B6C87
:1018D00003937080B41C002A07D003079A420BD1EF
:1018E0002A69002A04D03F2003E02A69002AE0D0B8
:1018F0007F200290B08002E00198B08002900E46F6
:101900002088002820D0202100272846039A3B4623
:1019100002F080FD002819D12868406A002E04D00A
:10192000029908403070771C05E00299084001993F
:101930000880891C01910498006822280BD1208816
:10194000401E20803E46DBE7002000E003202021EF
:10195000049A116000E0009805B0F0BD3048029094
:10196000B08000260191CBE7F0B585B0049307461F
:101970008820385820284CD100294AD0B868012343
:101980001B03984204D13C69002C01D1CC0740D103
:101990003D4654353C46883400260196A6602126F3
:1019A000029626602A801D4E766C03966A809842C5
:1019B00002D1386900282ED00E466888002820D031
:1019C00080213846039A049B02F024FD00281ED192
:1019D000002E04D0307839688862761C08E0019ABD
:1019E00010880F49084039688862921C01920026CD
:1019F00020680299084021280BD16888401E688021
:101A0000DBE740213846039A049B02F003FD2020C7
:101A1000206005B0F0BD00260191CEE72000002037
:101A2000FF010000FEE70000F8B5194803689C6953
:101A300099691A686405640F25D00124CD0506D57F
:101A4000150604D52502466C26434664DD614D0526
:101A500007D5150605D5A502466C08273743476408
:101A6000DD61890507D5110605D56102426C0224A6
:101A700014434464D961416C0B20014207D00448EF
:101A800000F0AAF8F8BD436B002B00D09847F8BDD2
:101A90007401002080B5806A816B002901D000228A
:101AA0008A63C16B002901D000228A6300F028FEFE
:101AB00080BD10B5CA0701D1002308E04122825C35
:101AC00028231340282B01D0F22300E042238A0769
:101AD00001D41A4609E04122825C28241440282CB3
:101AE00001D0F42200E044221A430BB2002B01D5AE
:101AF000B8231A43102901D190231A43202901D178
:101B000020231A43402901D140210A43006801687B
:101B10009143016010BD000010B5426B104B9A421A
:101B200007D0104B9A4204D00F4B9A4201D020228A
:101B300000E0602201230B405C42F22323408C072B
:101B400001D5F4242343102901D1902423432029D3
:101B500000D000221343006801681943016010BDE2
:101B600015210008852400085923000800688169B0
:101B7000890701D5002181628169C90703D1816983
:101B800001220A4382617047B0B50446403461784F
:101B900028220A400168282A19D18A698A698B6833
:101BA000CD68C568022D05D1120CDB0953405A07D8
:101BB000920F04D00121C903FFF77BFF09E0826C7B
:101BC000521C8264826C022A05D1002282640820A1
:101BD000C86100202070B0BD70B504460546403590
:101BE00068780026AE707E4AE2626685626C0A43BF
:101BF00062642838022807D803212046FFF759FFDE
:101C0000282068702F4E19E045492046FFF751FF04
:101C10002046FFF7ABFF687860280FD0202068705F
:101C200021688A69920609D58A69D20605D51022EB
:101C3000CA61626C042313436364C8616663A06B6A
:101C4000216B00281AD0212901D0112916D1216831
:101C50000A68520404D5012292030B6893430B6077
:101C60002521415C01291DD000212970164981637D
:101C7000FEF7E6FD002818D0A06B20E0E06B0028FE
:101C800010D0222901D012290CD121680A6812042F
:101C900004D50122D2030B6893430B602521415CDC
:101CA000012903D1204600F02BFD70BD00212970D1
:101CB00005498163FEF7C4FD0028F6D0E06B816B17
:101CC000884770BDC1250008951A000870B5044604
:101CD000C148E0620025256326464036202070700A
:101CE0006563B570480712D5606A2168496A01705A
:101CF000606A401C6062208D002808D0618D491EFA
:101D00006185401E2085606C0421014361640449A3
:101D10002046FFF7CEFE357020681021C16170BDEE
:101D200003800000FEB50D460446006820210191A5
:101D3000C161264640367178212902D1112701213F
:101D400004E07178222906D1122702212046FFF7EC
:101D5000B0FE276320684168ED4A0A4042600027D0
:101D600067639D49E162E90605D51021C161616C97
:101D700004220A4362647178602905D1690703D59A
:101D8000406AC0B2029002982046FFF7EFFE606CF6
:101D90007178602910D000280ED17078212810D1D8
:101DA0000198707027633770B078B770402816D0EC
:101DB0002068FEF761FEFEBD616C2046FFF70CFF58
:101DC000FEBD707822280AD10198707027633770A1
:101DD000B078B770402802D02068FEF73BFEFEBD09
:101DE0000000FFFF70B50446054640350026AE7082
:101DF00068782021697021280BD166631120206347
:101E000001212046FFF755FE2E702068FEF734FEB4
:101E100070BD66631220206302212046FFF749FE51
:101E20002E702068FEF716FE70BD0000F0B585B07C
:101E30000446006802680392E26A01922646403630
:101E4000727820230293C361213AD5B2092D0491FF
:101E50000ED85149E940C9070AD068004FA1095A74
:101E60002046FFF726FEA80051A1085820632068ED
:101E70000125EF034168394341604168A44A0A40A3
:101E800042602046FFF772FE039B580407D43B4292
:101E900010D020680168B9430160E06B05E0A80339
:101EA00021680A6882430A60A06B002802D000689B
:101EB00040686085049F780710D5606A2168496A88
:101EC0000170606A401C606204208743208D0028F6
:101ED00004D0401E2085608D401E6085608D0028E6
:101EE00003D0606C042101436164F80631D5D80643
:101EF0002FD5608D002810D020681021C161606C42
:101F0000042101436164280601990143814220D1E3
:101F1000616C2046FFF760FE1BE07078282808D12E
:101F200068060199814204D120463946FFF7CEFE6A
:101F30000FE0707821681022CA61292809D1B348BE
:101F40000199814205D02046FFF710FE204600F09F
:101F500045F80025B5706563606C00280BD0616C96
:101F60002046FFF739FE7078282812D120463946DE
:101F7000FFF7ACFE0DE0E06AF64FB84201D1707891
:101F800003E0204600F02AF8E7620298707035708E
:101F9000256305B0F0BDC0468303000001800280C8
:101FA0000180018001800180018003800180028026
:101FB000210000002200000021000000210000009C
:101FC00021000000210000002100000000000000AE
:101FD00021000000220000000000FFFFB0B50168F2
:101FE0000A68044640340025A570530403D4120443
:101FF00005D50D4A00E00B4A0B6813400B60617871
:10200000292902D10121212204E061782A2907D15E
:1020100002212222282363700263FFF74AFD257004
:10202000B0BDC046FFBFFFFFFF7FFFFFF8B5364FD3
:102030003A689369DB0602D40025284634E0102371
:10204000D36104250123314E1F469469A40625D48B
:10205000FC0723D0746C641A84421F46F5D900959E
:1020600054684227284DED5D97693F040BD5012741
:10207000BF033C4007D1202D009D05D05168394356
:102080005160716C00E0009D9469A406DCD4746C0E
:10209000641A192CF8D900272425D6E70120F9075E
:1020A00001D02021D161184F01269169CB0503D5BC
:1020B0003002D0613543304673024C0505D41942D5
:1020C00009D100280AD10020F8BDB002D061082053
:1020D0000543194202D0D361022005433846FFF779
:1020E00045FD386841680A4A0A404260786C2843D6
:1020F0007864412020213954402000213954422065
:1021000039540120F8BDC046740100202000002091
:1021100000E800FE7CB504464020235C012B01D181
:1021200002207CBD2546403501262E70CB0601D508
:10213000D3060FD40B0601D553061AD4480601D591
:10214000500627D488065DD590065BD52046FFF75C
:10215000E9FD57E020681021C161606C0421014352
:10216000616420212046FFF7D7FC2046FFF7FEFCE4
:1021700048E021680A6882430A60608D4968002847
:1021800018D073480140608D000A1ED0FF202085C2
:10219000330623E0608D002812D120684168890150
:1021A00030D4E16AFA4A914206D1B10342680A4347
:1021B000426027E0880103D42046FFF713FE21E0A8
:1021C00040212046FFF708FD1CE0608D2085E26A73
:1021D000EF4B9A4201D1730600E0E36A00220092BD
:1021E000C2B2204600F072FA208D618D081A608517
:1021F0006A7820680168222A01D1F20300E0B20364
:1022000011430160002028707CBDC0460000FFFF24
:10221000FEB50C4605464021405C012801D1022054
:10222000FEBD16462F46403701203870E20601D524
:10223000F20621D4620701D5720728D4214003D1C8
:10224000A20701D5B20745D4220601D572062ED4C5
:10225000002971D071066FD5698D002935D12968A3
:102260004A68920168D4EA6AC94B9A4229D180032C
:102270004A6802434A605FE028681021C161686CC7
:102280000421014369642846FFF770FC54E0686A42
:102290002968496A0170686A401C6862288D401E7E
:1022A0002885688D401E68850420844344E0698D3C
:1022B000002902D0298D00291CD02868406880019F
:1022C00003D42846FFF78EFD36E040212846FFF76D
:1022D00083FC31E0688D00282ED02868696A0A786E
:1022E0008262481C6862288D401E2885688D401EC9
:1022F000688521E029684A68154911406A8D120AEB
:1023000005D0FF222A8500230093030611E06A8D81
:1023100002922A85EB6AEC4A934205D10022009290
:10232000029AD2B2430604E0EB6A002000900298C1
:10233000C2B2284600F0CAF9A00605D5B00603D5FA
:1023400028462146FFF7EEFC00203870FEBDC0464F
:10235000FF0300000000FFFFF8B504464020205CAA
:10236000012801D10220F8BD2646403601203070F8
:10237000C80601D5D00613D4880701D590071ED40E
:10238000080601D5500621D4480601D5500634D49C
:10239000880670D590066ED52046FFF7C3FC6AE02C
:1023A00020681021C161606C042101436164202117
:1023B0002046FFF7B1FB2046FFF7D8FB5BE0206D1E
:1023C000216888620020C043206554E00125204632
:1023D0002946FFF76EFB10212046FFF79DFB608D1D
:1023E000002818D0608D000A2CD0FF222285E06CD6
:1023F000002100912B0681B22CE0012520462946C0
:10240000FFF757FB10212046FFF786FB7078222844
:1024100006D01B4805E040212046FFF7DDFB2AE0FF
:102420001648618D090A05D0FF222285E16C0090D3
:102430002B060EE0618D2185E76C00906B06CAB219
:10244000B9B207E0608D2085E16C002200926B0636
:10245000C2B289B2204600F039F9208D618D081A88
:102460006085727820680168222A01D1EA0300E0C1
:10247000AA031143016000203070F8BD00240080E1
:1024800000200080FEB504464020235CE06A012B5A
:1024900001D10220FEBD2546403501232B708E065A
:1024A00001D596060BD4CE0601D5D6060BD4080767
:1024B0006AD5100768D52046FFF766FB64E0204622
:1024C000FFF7B4FC60E01604B70F17D09F033A4043
:1024D000002E17D5E66B002E14D0366877687E1E66
:1024E000029601973E46029FBE41002A02D0A26B8F
:1024F000002A0DD1019A002A10D12CE02068102169
:10250000C16141E0002A09D0A26B002A1E4605D015
:1025100012685268002A1ED0002E1CD0216810229A
:10252000CA61616C04220A4362641A061043697826
:10253000904229D12139C8B2092807D81549C1408C
:10254000C90703D0800014A108582063616C20469D
:10255000FFF742FB18E06A78282A06D15A06904213
:1025600003D12046FFF7B2FB0EE069782268102302
:10257000D361292908D10649884205D02046FFF7B2
:10258000F5FA2046FFF72AFD00202870FEBDC04660
:102590000000FFFF030300002100000022000000F4
:1025A00021000000210000002100000021000000A7
:1025B0002100000021000000210000002200000096
:1025C00070B504464020235CE06A012B01D1022053
:1025D00070BD2546403501232B708E0601D5960629
:1025E0001FD4CE0601D5D6061FD44E0701D55607F7
:1025F0002ED40E0701D5160741D4890761D591075E
:102600005FD5618D002955D02068616A0A788262A1
:10261000481C6062208D401E2085608D401E6085B4
:102620004FE02046FFF702FC4BE0628D002A2AD0E3
:1026300021681022CA61616C04220A43626419068F
:10264000084388423DD1616C2046FFF7C5FA38E067
:10265000618D00290CD0616A2268526A0A70616A31
:10266000491C6162218D491E2185618D491E61854C
:10267000618D002925D1144988421FD121E02046CF
:10268000FFF782FA1DE06A78282A06D15A0690429E
:1026900003D12046FFF71AFB13E069782268102364
:1026A000D36129290DD1084988420AD02046FFF775
:1026B0005DFA03E019060843884202D12046FFF77D
:1026C0008DFC0020287070BD0000FFFF70B5049CD9
:1026D000E50FAD02084E6E40006845683540074E74
:1026E0000E4011048919194321430122D207914355
:1026F0002943416070BDC046009C00FCFF03000000
:10270000024640325178602905D1202151700021C4
:102710001170016370470021117001630068084A5D
:10272000904200D070477A48827E012AFAD14172E5
:1027300041730222C2720173417681767047C046AE
:10274000005400407248416C427E002A06D0426C20
:10275000521A322AF8DB0021417681767047C04652
:10276000FEB50293174606462C4B0190029D186851
:1027700080693040801B42424241914225D10C4643
:102780001E4638462946FFF751FC01460120002924
:102790001AD15F49496C491BB94233462146019E13
:1027A000E5D91A6892693240941B624262419142B3
:1027B000DDD1596C20221143596441215A544021E2
:1027C00000225A5442215A54FEBD0020FEBDC0468C
:1027D00070B50446114D4E4E2868806980071BD4A1
:1027E00064202146FFF722FC01460120002912D176
:1027F000716C091B6529EFD3296889698907EBD4B6
:10280000696C20221143696441216A5440210022ED
:102810006A5442216A5470BD002070BD74010020CA
:1028200010B53B48027C0021002A0A4600D0826D88
:102830000265084A202904D0531800241C62091D8F
:10284000F8E700218165C17401744166012181733B
:1028500010BDC0461401002080B52D49087C002819
:1028600004D0886D096DFDF712FD80BD002080BD8C
:1028700010B52748417C002909D0C46D016D406D19
:10288000FDF70DFD01462046FDF701FD10BD0020BE
:1028900010BDC04670B51E4D6A7E002A01D00024CE
:1028A00013E03D22A8540124AC766C76E875A97239
:1028B0006C720026EE722046FEF72EF9002804D036
:1028C0006E76AE760220E8723446204670BDC04671
:1028D000B8B50F490A7E0F48002A10D10122D30251
:1028E0000D4C25681D43256024681C400094009B06
:1028F0002F238362094BC362426102600A76CA8D4C
:10290000406AC885801A80B24A6F10184867B8BDFF
:1029100020000020002C014040100240FFFF00007A
:1029200070B50446F421984E705C0022725402285F
:1029300012D0012839D100F049F8032835D11520EB
:102940000001305C002830D06820305C00282CD199
:10295000204600F073FF70BDF820355A00F036F8BD
:10296000032823D115200001305C00281ED06820E8
:10297000305C00281AD1284601F006F80028E7D17B
:10298000FF2001465C310222725401465A31012275
:10299000725405218B01F5529F235B00B488F452D9
:1029A0004F239B00F1545830325470BDFF205A30F1
:1029B000012131540520800135529F204000B1880B
:1029C00031524F2080000A21315470BD80B56E48CD
:1029D000808800F0BFFE002801D0007880BD002074
:1029E00080BDC04610B5FF205430674C205C0028E5
:1029F00015D0FFF7EBFF032811D16820205C0028D9
:102A00000DD115200001205C002808D0AD20400029
:102A1000205C002804D0F420215C002906D010BDE1
:102A200051208000205800F009FF10BDFC21002239
:102A30006250F621625201212154F82022520802EC
:102A4000225010BD70B50C460546FFF7BFFF0328A6
:102A50004CD8C046784400794000874401301820A3
:102A6000E8B2290C002848D002284CD1464DA8884D
:102A700001F0CEFD7C2100226A54E9880C224A43F1
:102A8000006880180089214600F018FF70BDE8B288
:102A9000290C00282BD0022820D0012029E0AD20CD
:102AA0004400394E01203055E8B201281AD00228DE
:102AB0001AD1B088032815D1FDF712FE14E0E8B250
:102AC000290C00281CD0022822D12F4EB588284678
:102AD00001F02CFFF188828991421ED1204600F03E
:102AE000ADFE70BDFFF77EFF0020305570BD0020A9
:102AF000C043224601F0AAFD70BD0020C04303E0A0
:102B00000020C04305E00120224601F00DFD70BD0C
:102B10000120224601F07EFE70BDCA004068801888
:102B20000279931E032B01D2072017E0012A06D059
:102B3000002A0BD1C088214600F0C0FE09E0C08801
:102B400000F022FF002803D1052002E0032005E069
:102B500000200B210842C9D0B588F188FF22134616
:102B60005C330224F45413465A330124F4540523ED
:102B70009B01F1529F21490075524F2189007054E9
:102B80005832B45470BDC0463C030020B0B5002993
:102B90000FD00C460546084601F004FA8021081AB9
:102BA000C10F40184008281800B20121224601F048
:102BB00019F9B0BDF0B5ADB01F4616460C461C90D5
:102BC0000588284600F0C6FD002801D100F087FDE9
:102BD000002F01D100F083FD0078032801D900F017
:102BE0007EFD119715941096784400794000874433
:102BF000018E4D5A284601F00BFD19900027402305
:102C000030463946119A01F067FAF84D2C4601CC4E
:102C1000C06B01F08DFA1C99A14200D0D3E27C2058
:102C2000285C002800D1CEE2512080002858A96FEE
:102C3000401A4B21890000F069FD03461B902C6F60
:102C4000686FE217C117001B91412E4600251A46F6
:102C50002B46FDF78FFA0A0D80186941000B090514
:102C6000401827183446F66EF11730461B9A2B464B
:102C7000FDF780FA0A0D80186941000B090540181C
:102C80002546301A1B90109E199CA3E2284601F09D
:102C90001BFD18900068002800D1CBE30078411E8E
:102CA00088410201C7E3AD204000D04901241C90B7
:102CB0000C540027402330463946119A01F00CFA93
:102CC000CB4801F035FA2920CA490C54032D1B9733
:102CD000C94800D088E2C47020200F5C0025C7A23C
:102CE000159E3046294603F0D5FD701C00B2002F1A
:102CF00001D100F0D7FC0521009111217E2216237D
:102D000000F094FFBC4EF570BFA200F0D2FC284644
:102D100001F00CFE1C9DA968EA6804911E911D92A9
:102D2000179001F011FE1490B04911988419081DF4
:102D300085420DD18E20085C002809D051208000EA
:102D400008581EA91DAA01F0EFFCA8491E9804907E
:102D500020B20D900868006C01F0EAF900240E25FD
:102D600030462146119A2B4601F0B6F917980168B2
:102D7000159F3846FFF70AFF9C480068406C01F039
:102D8000D7F9302330462946119A169301F0A4F959
:102D90000499C8170290000E08180012281A139000
:102DA000B81E03903846783000B20890384672302A
:102DB00000B2079038466E3000B20B9038466A3049
:102DC00000B20A903846083000B20C9075371C9754
:102DD00038B2411D0691001F0590012009901498FA
:102DE000844200D1A7E1A1B2179801F0BFFD0546CA
:102DF00020011399421816B23D2E00DD99E10027FB
:102E0000F843864200DA94E11799888985421AD1FD
:102E10000C9F38460A99109D2A460D9B01F0C6FC6E
:102E200072480068826C3846314600F0DBFF0E21A4
:102E300030232846119A01F04FF90B983146099A30
:102E400001F02EFB75E10E921FA80770EA0048689A
:102E50001B9281180A79032A0F941A9511D0022A1D
:102E6000159C70D1C8881C21414360480068406AA5
:102E700040184169199140680568002D20D43C46EE
:102E800023E0C8880C21414358480068C26A5118A1
:102E9000496809780029159C01D1582100E0542186
:102EA00041580020132806D00A5C002A04D01FAB2A
:102EB0001A54401CF6E713201FA900220A5434E0DC
:102EC0001FA82D2101706D42099C0A212846FDF79B
:102ED000B6FAF62141434919169A114329AAD15548
:102EE000791C0A2D03D30A2F05460F46EDD31A9DF0
:102EF000199F002906D0491E29A8085C1FAA105551
:102F0000641CF6E7002F0BD01FA8001900216218DF
:102F10007B5C002B05D0122A03D84354491CF6E7EA
:102F200022461FA800218154159C1FA80078002864
:102F3000179807D08068294600F01CFC00282CD088
:102F40006A242BE040681B9A80180079002808D07A
:102F500017988068294600F00DFC002858D06E2094
:102F600057E00C9C20460A99109F3A460D9B01F0B1
:102F70001DFC179D68681B9942582046314600F099
:102F800031FF0E2130233846119A01F0A5F80022B6
:102F90000B98314601F084FA52E070241FA8199072
:102FA00001F000F8211A18910398081801B20C9C3E
:102FB0002046109F3A460D9B01F0F8FB179D68686C
:102FC0001B9942582046314600F00CFF0E21302359
:102FD0003846119A01F080F815981899081800B22F
:102FE0003146199A00F0FEFE2AE0C0463C0300205C
:102FF000786B0008200000200000002050574D2072
:103000004F5554505554000050574D204F4E00001E
:103010007920001901B20C9C2046109F3A460D9B66
:1030200001F0C4FB179D68681B9942582046314641
:1030300000F0D8FE0E2130233846119A01F04CF8EA
:10304000A8681A9900F096FB00280F9C0E9D70D07E
:10305000083528B2011F431D0598069A03F0FAF9B6
:1030600000285CD00220C1430024042703221895C5
:103070001A921B911C981997C01906B2281907B209
:103080003046394600F0EEFF002C04D0281B01B278
:10309000304600F0E7FF199D002D0ED01C98401B14
:1030A00006B23046394600F0DDFF002C05D01898F6
:1030B000001B01B2304600F0D5FFAC422F461CD0B9
:1030C0001C98001905B2189EF01901B228461291F9
:1030D00000F0C8FFF01B06B22846314600F0C2FFE0
:1030E000002C0AD01C98001B05B22846129900F04B
:1030F000B9FF2846314600F0B5FF781E1B9900291C
:1031000000D407460029189D1A9A00D500204000D7
:10311000081A1118921C601CA7420446A8DC0E99DC
:10312000481D0B3109B203B20798089A00F018FD48
:103130000F9C641C53E6BE4D0220E8701D980321CD
:103140000091C117090E4018000A0E3001B2159CFB
:10315000E01C00B27622102300F068FD0120E87028
:103160001498042829D326467C360D98864224DA02
:1031700020467F30109988421FDB7D3420B20E211B
:10318000169C224600F0A4FE9020149F3946FDF7BD
:1031900056F9211A04460298000D049A1018000BE3
:1031A00080B24843F91E89B2FDF749F90E3001B2E9
:1031B00030B20322234600F079FCE048002141634D
:1031C000DF4868608BE21B974988199C204601F014
:1031D00091F907462868C06B00F0AAFF8021002FF4
:1031E0006CD480373A0A6CE0C4704A6DD5484368A5
:1031F0001FAED549304603F061FB159D2846394680
:10320000324603F083FBFFF727FB0246CD48836875
:10321000CE49304603F052FB10212846324603F0D7
:1032200075FBB770CA483080FFF722FB01461A943D
:103230003C4629AF02223846FDF78AF93046394626
:10324000FCF756FFFCF760FF5721199131543018F5
:10325000447004200090681C00B21D217E221323BC
:1032600000F0E4FCB44FFC70E81D00B220213246AF
:1032700000F0B8FD1A98F870B049886F496C081AC8
:1032800000D522E2B3481F90AE48016829AE022261
:103290003046FDF75DF91FAD28463146FCF728FFA3
:1032A000FCF732FF1999295428181B9C44703021CF
:1032B00015982A4603F02AFB22460DE2C81B000A95
:1032C0004242119880191B9D002D169102D4803521
:1032D000290A02E0491B090A49421391149200B2DB
:1032E0001890002637463146A588AF420ED2206896
:1032F00080590D4600F056FE0C3080B2A9B28842CB
:1033000000D808460C367F1C0146EDE71598139A45
:1033100080181B9088B2782800D378201B99303110
:103320001B91001D1790109820381A9010041390CC
:1033300000260427189CAAB296421BD21C984188EA
:10334000B0B201F0CAF880011B99081800B2A0427F
:103350000DDA1A9981420ADA199C2168C95900913B
:1033600008212022134600F0DBFDA588189C0C37AD
:10337000761CE0E7149B9DB2E80B181800B24010D1
:103380001599091A40310EB2109A9642304600DC67
:103390001046C91809B2A14200DB2146814243DD33
:1033A00018961A95139A1214179B5A43D3179B0E0B
:1033B000D21892111B92091A8AB200B22C2114233E
:1033C00000F08AFE00263746199CA28897421ED23A
:1033D0001C984188B8B201F080F8179948431B99AE
:1033E00045182068805900F0DDFD00B21699081AD2
:1033F000C10F4018400828181599081800B2216814
:103400008A592E2100F0EEFC0C367F1CDDE7B74C0C
:103410000220E070032000902C21142318981A9A9F
:1034200000F004FC0120E070AF480021416335E169
:103430000000002000221C99AA4B88681A90181DD1
:10344000814219920CD18E20185C002808D051209E
:10345000800018581D4601F043F92B46199A1A901E
:10346000119FB8191C90002A3CD0354616461868A2
:10347000006C00F05DFE0024284621463A463346A3
:1034800000F02AFE189801681598FFF77FFB711E5F
:103490007D22159800F036FB0220009015987230BE
:1034A00000B201211B910C22134600F0BFFB8F4894
:1034B000C4701598753006B215997A310FB204258B
:1034C0000924304629463A46234600F049FB38464F
:1034D000294632462346159C00F042FB814B834827
:1034E0001B99C1701868406C00F022FE1C9A10B243
:1034F00021467D310C90814200DB1146402009B20B
:103500001B911099A1420F46199B1A9E00DC274679
:10351000C51A1B98C41BB84206DDA2B238B21946C0
:103520002B4600F0D9FD199B189A38B2002E13D4FF
:103530008036310A14E0C046000000202000002040
:10354000800040009C000020797400086A74000824
:10355000503D0000504B3D008021891B090A494223
:103560001A911599891D09B281421691129100DCB8
:1035700012900F9528090D901846103817900025C5
:10358000A0B20E902E461B991C97108986424ED2EF
:103590003FB2B94247DD3001C0181A99401A1B9951
:1035A00004B23F2C3FDC1798A0423CDA5268511914
:1035B000486800282FD0017800292CD0149000F002
:1035C000F1FC15990B1A1846773002B21B9882420B
:1035D00000DB0246129800B2824219990FDD139364
:1035E000129BD21A92B20F9B00F076FD1898406899
:1035F00042591698214600F0F5FB139B199979332F
:1036000018B2139038460E9A0F9B00F065FD139880
:103610002146149A02E052591698214600F0E2FB26
:10362000199B189A1B990835761C1C9FADE700243E
:103630004023109D28462146119A00F04DFD189810
:1036400001890D98884227D215987E30A84223DB45
:1036500007460C9887421FDA0F9E304670430901D7
:10366000FCF7EDFE0546082800D80825761B1898BB
:1036700000F0DAFF1A990AB27243C117090E401816
:1036800001121046FCF7FAFE1999081801B238B277
:1036900002222B4600F00AFA1348446313481A49E1
:1036A00041601CE011211622052300F009FB11A244
:1036B0000E4E1421159D284603F0ECF8F4702C21D1
:1036C0000EA2284603F0E6F805E0094A5032302100
:1036D000159803F01BF91B9A1C9802490A542DB047
:1036E000F0BDC0463C030020200000200000002068
:1036F0009C00002050574D204F4646004F4B3D54F4
:103700006F67676C6500000080004000B0B58842BC
:1037100018D24B2294006043FCF791FE85012846A5
:103720002146FCF78CFE0949414349194000084AEB
:10373000155A10184088401B48432146FCF77FFE6D
:10374000281801E00120000380B2B0BDD4FEFFFFC5
:103750006E7200080146A24802680020002A08D0C4
:10376000002906D01389994203D8880051680818A7
:10377000001F7047002807D08A08825C8807400F26
:10378000C24003201040704700207047F8B5944DA8
:10379000A88801F0CBF804468789EE88BE4202D99A
:1037A0008F48C7803E462046314601F010F8002879
:1037B00006D02046314601F017F80546884F20E034
:1037C0008748C78035466D1CA9B2B94205D220464C
:1037D00000F0FDFF0028F6D009E03546280409D0A6
:1037E0006D1EA9B2204600F0F2FF0028F6D07C4FF3
:1037F000FD8001E03D467A4FA9B2204600F0F4FF7B
:1038000005463E89B542284603D3F01CA84202D89B
:10381000A81E38810646204601F096F8C01E00D248
:103820000020B1B2814201D938810646B0B201030D
:10383000281A0003F9603861F8BDC046F0B587B0BA
:103840006821674A515C002903D00425284607B047
:10385000F0BD15210B01D15C00292CD00290151D63
:10386000019503A8D4CDD4C05D4E491EF154C8B211
:10387000000130181430019D1EC81EC5FFF7A6F8C0
:10388000012801D1FFF782FF8E20002535547C20CE
:10389000355403A80121029A01F07EF8B088FFF7A1
:1038A00059FF0028D2D000780328CFD1AD204000A6
:1038B00000253554CAE70A25C8E7C046F0B58BB0E5
:1038C0000F460446FFF746FF002807D0064668204B
:1038D000434D285C002803D0042451E001244FE02C
:1038E0000697152000012F5C042F16D3FF200146F8
:1038F0005C3102226A5401465A3101226A54052180
:1039000089016C529F214900AB886B524F2189007D
:1039100006246C5458302A5432E00590FFF756F8CC
:10392000032804D13078032801D10A2428E0281D77
:10393000039007AA049202900197029F2BCF2BC2FB
:10394000019B581C2649059A885418010818143000
:10395000039F2ECF2EC0224D204600F02FF88E2040
:1039600000242C547C202C5404982146069A01F003
:1039700013F83078032803D1AD20400000242C54E4
:1039800020460BB0F0BDC046B0B50146012000296D
:1039900013D0A9225400124A135D032B01D9002031
:1039A000B0BD5D1C1555FF245234145DE3189B0710
:1039B0005B0FD2184D239B00D152B0BD80B5084992
:1039C0000022CA600A610A81CA808880FFF7C2FEAD
:1039D000002804D00078012801D1FFF7D7FE80BD70
:1039E0003C03002010B55D49CB795C1C07222240C6
:1039F0000C7AA24204D02B4CE31828241855CA7123
:103A000010BDC046F8B506254543244F7E5B244BC8
:103A10001C68C000234B1B184020185C403303284F
:103A200021D87D193440C04678440079400087444D
:103A3000011C0413002C20D0F8BD002C04D1002A56
:103A40001FD0287900281CD000201870A8780028E2
:103A5000F2D0FFF7C7FFF8BD002C04D1002AEBD04D
:103A600028790028E8D0002009E05868081A1428AE
:103A7000E2DB60426041400001E0596001201870C3
:103A8000F8BDE8780028D7D05A68891A7D22D2007C
:103A90009142D1DB03211970DBE7C0466C6B000853
:103AA000100000509C000020FEE70000F8B505461D
:103AB00018B2012824DB14460E465F185219284616
:103AC0003B4602F0C7FC00281AD036202349085E86
:103AD000874215DD0621204A515E8E4210DA80B2FF
:103AE0008F4200DB0F4600B2864207DC064605E047
:103AF00031B22846224600F005F8761CBE42F7DBBC
:103B0000F8BDC04670B5054610B2012823DB0C464F
:103B100036211248415E8C421DDB06230E49CB5EE6
:103B20009C4218DA56193422805E864213DD042244
:103B3000895E8D420FDA80B28E4200DB0E4600B203
:103B4000854206DC054604E028B2214600F08AFAE8
:103B50006D1CB542F8DB70BD000000202000002085
:103B6000F0B587B01D460B4607460592904200DB34
:103B70000598AB42194600DB2946059A97423A461A
:103B800000DC059A521CAB421C4600DC2B465B1C39
:103B900002F060FC0021C94301222346AC4203929B
:103BA000029200DB0291059A974200DB0391002804
:103BB0003AD00598C01BC1174840421A0495E81A2C
:103BC000C1174840401A114642420190081A069017
:103BD0000598874202D10498834221D00E463C4684
:103BE00038B21D4619B2174600F03CFA3A46069B19
:103BF0005800874202DC01995B1A069331468642DF
:103C00002B46274602DB069C64180694814202DBA1
:103C100002995B1831468242DADC03983F18D7E7F5
:103C20000598049900F01EFA07B0F0BDF0B587B012
:103C30000690059100901018049002935818039074
:103C4000019210B2012838DB0C4606A805A904AA87
:103C500003AB00F0E3F900282FD00C980299019AE9
:103C60008A42114600D302995D4A891849088AB2EE
:103C7000824200D301468FB2802F1ED8080416D08E
:103C80006442039E059DB54217DA621902983946CF
:103C900002F01FFD009909180BB240000199081AA3
:103CA00082B229B21846FFF72DFF6D1CEBE7009892
:103CB0002146019A029BFFF7F9FE07B0F0BDC0460E
:103CC000F0B591B01E4610908CB20F940A907E30E1
:103CD0000E900C9210190D9010A80FA90EAA0DAB02
:103CE00000F09CF9002879D00C987E2800D37E2023
:103CF0003B4940184008089080B2B04200D3089673
:103D000061420C980791081A401C03900A980146DA
:103D10007D310B91411C0291401E01900D9809903C
:103D20000F9C0998844259DA07980519089887B2B8
:103D30000C9839462A4602F0CCFC06460B98811BAB
:103D40000A983318002D10D0039800190DD0049351
:103D5000069105946A1E0C98394602F0BAFC074693
:103D6000864207DC049B194607E0C81A401C82B251
:103D700018B22EE002983918049BBE421846069AE3
:103D800000DB08460B99CC1BBE4201DB114600E06C
:103D9000611CBE42154600DC0D46BE4201DA0199A7
:103DA0007B180494591CA94209DA191A491C8AB2D1
:103DB00000B2059C21B2FFF7A5FE069A01E0054678
:103DC000059CBE4201DD0498421E501B401C82B27D
:103DD00028B221B2FFF796FE641CA2E711B0F0BD35
:103DE000FFFF0100F0B595B004910990EF48406ADB
:103DF00000286AD01546002A67D02878002864D0A9
:103E00000BA9284602F0CCFCE849496A00240029A5
:103E100055D00DA90CAA02F015FC00284FD00CA813
:103E20000078012848D10395109813900F981290AC
:103E30000020059011900DA80178069100293AD034
:103E40004078002837D00699414306916220D74D2B
:103E5000295C12AC204602F00BFC08902846623028
:103E60004178204602F004FC0790089800900598DD
:103E70000190099806B20DAA0A9211AF3046049D2E
:103E800029463B4602F04EFB01240798009001941E
:103E9000304629460A9A3B4602F044FB12A82146C6
:103EA00002F0E6FB1199002802D006988142DCD38B
:103EB00006988142CAD3039D04200DA90C560B9885
:103EC0002D1809982018099097E715B0F0BDC04645
:103ED00070B5044634239448C35E9C421EDB04251F
:103EE000924B5D5FAC4219DA55183622805E8542EE
:103EF00014DD06229A5E914210DA80B2954200DB10
:103F0000154600B2814200DC01468EB2AE4205D2B7
:103F100031B2204600F0A6F8761CF7E770BDC04627
:103F2000F0B58BB00A900991069010180890059191
:103F30005818079010980490002830D016460AA808
:103F400009A908AA07AB00F069F8002827D0F01DDE
:103F5000C0080290089F0A98019007980390099C56
:103F6000039884421BDA0598201A80B202994843CC
:103F700004990E18019DBD420FDA0698281A0721F0
:103F8000014080B2C008305CC8400122024028B223
:103F900021B200F06DF86D1CEDE7641CE0E70BB09A
:103FA000F0BD0000B0B586B00446E348406A002585
:103FB00000282DD0002C2BD00025284629462A4643
:103FC0002378002B18D06946204602F0E9FB02A9AD
:103FD00001AA02F037FB002808D0042002A90856E5
:103FE0002D1802228A560978511801E00020014656
:103FF000009AA4180122E3E7D20701D0281A451835
:10400000012D04DB0448854202D3054600E000256B
:10401000A8B206B0B0BDC046FFFF000070B5CC4CE2
:10402000A58E0668AE4200DA0560E48E0D68A542F2
:1040300000DA0C60BF4DAE881468B44201DD166032
:104040003446EE881D68B54202DD1E6014683546B0
:104050000068A04202DA0868A84201DB002070BDB7
:10406000012070BD80B5012200F002F880BD000083
:10407000B0B53423B64CE35E98422BDB0425AD4B40
:104080005D5FA84226DA3625645FA14222DB062462
:104090001C5FA1421EDA002A1CD05A789202A74C5B
:1040A000A218FF24E4010D012540281880B2101841
:1040B00007220A4001219140DA78002A04D0012A1F
:1040C00005D102780A4304E002788A4301E00278CD
:1040D0004A400270B0BDC046F8B514B2002C21D4DD
:1040E000402540290F4600D32F46E44CE786802622
:1040F00000968028064600D3009E002800D50026A2
:10410000A6865B18BB4200DC3B46402B00DB2B46FF
:104110008849CB801018B04200DC3046802800DB94
:1041200000988880F8BDC0462000002000000020D4
:1041300080B501468048416200292FD08A786223E9
:10414000C2546230CA7842700A7982704A79C27069
:104150008A790271CA7942710A7A82714A7AC27185
:104160008A7A0272CA7A42720A7B82724A7BC2726D
:104170008A7B0273CA7B42730A7C82738A7C4B7C83
:104180001B029A1802820A7DCB7C1B029A1842827B
:104190008A7D497D09028918818203E062301621F7
:1041A000FCF719F802F0E0FA80BDC0469C00002040
:1041B000F0B589B02720B14A105C002821D0252015
:1041C000105C012400281FD12B21505C00281BD13A
:1041D000039158494878887026210291515C0591D5
:1041E0002421545C0721C943534E019100290ED06C
:1041F000721840230025D55438238025D554491CF6
:10420000F4E7282002241454204609B0F0BD8002AF
:104210004A4908900B18A00207900C1800250120AD
:1042200004902E46082D35D0059800280AD0424A21
:10423000501930270021C1557F2750193821475484
:10424000049E23E00695E8010027802F1DD0E15D44
:10425000DA5D8A4201D17F1CF7E73749069A89184F
:1042600030228F548027002F0ED0344E07997118BA
:104270007F1EBAB21218895C089D7519AA5C8A4221
:10428000F1D02D4A069DD8E7049E069D80338034E8
:104290006D1CC7E7F00706D0784B0399585C0028DF
:1042A00005D001243AE002F0F5F80024ACE70898C4
:1042B000224A161801205854019C002C1E4833D065
:1042C00000193821425C55B2002D20D42146083116
:1042D00008924022875CB020084398540F2129405F
:1042E000184640304170E9B209091031817003214C
:1042F00002F012FA089A614B00280BD1B018791B12
:10430000491C89B202F01CFA5C4B002802D18036AD
:10431000641CD2E7002003995854022428201C541E
:104320000298049919546FE7002403981C5402F072
:10433000B1F869E7000000209C0000209C040020E8
:10434000704770474D48416C491C41647047C046F6
:10435000200000200120C006014908607047C046C7
:1043600008ED00E0F8B5494D686E002814D02868C3
:1043700086688068400F0C49095C0C4F385CC000AF
:10438000FCF75DF804463001400F0749095C385CD2
:10439000C000FCF754F801E001242046682168526F
:1043A0006A202C52F8BDC046206B0008186B00082C
:1043B00070470000B0B5EFF31082012181F310883F
:1043C00009235B01046825689D43256082F31088FA
:1043D000EFF3108281F3108803689C680C4D254030
:1043E0009D6082F31088C26E012A0AD1EFF3108219
:1043F00081F3108801680B681024A3430B6082F3DB
:1044000010888C212022425000214167C166B0BD36
:10441000FEFFFFEFFEB50446066801200090C002D3
:10442000019484340294154DF4690C408C4216D0EA
:104430006C6CA71A03249F421ED8002B1CD0346832
:104440006407F1D54029EFD08029EDD0F469240725
:1044500007D4F4690442E7D00324202504E00024B3
:104460000AE008200546009C30620198FFF7A2FF91
:10447000002002990870CD602046FEBD200000207B
:1044800080B50248FCF768FE80BDC04614020020DB
:1044900080B50248FCF760FE80BDC046A80200203F
:1044A000F8B50D460446002A01D1032001E00220A0
:1044B000C043001906B2681D01B22846083007B291
:1044C000204632463B46FFF74BFB0B352BB23046BE
:1044D00039462246FFF744FBF8BD401A510888428E
:1044E00001DD801A03E04942884200DA801800B2F8
:1044F00070470000B0B50C460546AB480068C06B7D
:10450000FFF716FE0C20604329680858FFF74AFDA4
:104510006C2800D36C2000020D21090241183F20B5
:1045200040020840B0BDC046F0B587B006920C46C8
:1045300004909D488688304600F06AF80590878888
:10454000002F63D0002C61D07C20F74D0390285CB5
:1045500000282CD0A86F0699081A4B218900FFF774
:10456000D5F80346019028462D6F406FEA17C11712
:10457000401B914100261A463346FBF7FBFD0A0D0E
:1045800080187141000B0905401828180290ED4869
:10459000C56EE9172846019A3346FBF7EBFD0A0D75
:1045A00080187141000B090540182D1A09E03046AA
:1045B00000F02EF8E988FFF79DFF029005988788A4
:1045C000002520463946FBF73AFF00291ED0049A01
:1045D00090032818DB4CE06602982067002A00D57B
:1045E000494278000818E18840183946FBF746FF31
:1045F000E18089B20598FFF77DFFFF215831012244
:1046000062540399625460670698A06707B0F0BDD2
:1046100080B580B2FFF79EF84088C000C94909689C
:10462000C968081880BDC0460168002904D009780F
:10463000002901D0302100E0402100890001401A0A
:1046400001D800207047000270470000FEB51646F2
:104650000F460290ED4CA08800F036F80546019612
:10466000304600F03DF80646E4682846FFF7DCFFD8
:10467000002F27D0002825D03903029A002A04D41D
:10468000021B8A4204DD601802E0601A00DC002090
:10469000A04217D08E210122DC4C62548C21B4231D
:1046A00063528821019B6350842100236350802141
:1046B0006650FF2158316254E060C117090D40185F
:1046C000000B2081FEBDC04680B580B2FFF742F8E6
:1046D00040880C214143CD480068C069401880BD26
:1046E000B0B58E21C94C615C00291AD08C21615A69
:1046F0008822A258801AFFF709F802468020255820
:10470000EB17E068C117401B994100242346FBF7D3
:1047100031FD0A0D80186141000B09054018281869
:10472000B0BDE068B0BDC046FEB50B468E21B74CAB
:10473000615C002932D08C21615A02928822A258F1
:10474000801A0193FEF7E2FF064680202558EA17FB
:10475000E068C117401B9141002732463B46FBF7FA
:1047600009FD0A0D80187941000B09054018281829
:104770000199086084202558EA172069C117401B59
:10478000914132463B46FBF7F5FC0A0D8018029A30
:104790007941000B09054018281802E0E06818600C
:1047A00020691060FEBDC0463C03002080B59942E0
:1047B00000DB1946904200DC1046814200DC0146D5
:1047C000091A8AB20E213023FFF786FC80BD80B51E
:1047D0008289914201D1012080BD8068FEF7CAFF25
:1047E00001464042484180BDF8B5009105468789A1
:1047F00000242646B1B2B9420AD20098814207D0BD
:10480000A868FEF7B7FF012800D0641C761CF1E70A
:10481000A0B2F8BDF0B587B00192029106467B4880
:10482000808800F083F8074600F08EF80490BC8979
:10483000002501200390A9B2A14209D2B868FEF771
:1048400099FF002802D10398401C03906D1CF2E7E9
:104850006E48C1883846FFF7C7FF029D002D60D023
:104860000446039800045CD006A905AA0198FFF746
:104870005BFF039881B22846FBF7E1FD002950D089
:1048800008041ED00391002E06D4A0B2401C049947
:10489000FBF7D5FD0C4604E02004049800D0204628
:1048A000441EA1B2384600F061F805463846294654
:1048B000FFF78DFF0028E6D05448C5800399491EB4
:1048C000DEE752480189A0B2884201D2214603E0C6
:1048D000CA1C824202D8A11E4C4A1181049AD21EDF
:1048E00000D200228BB2934202D948490A81114674
:1048F0008022069B454DAB508E220123AB548C2267
:10490000C824AC528822019CAC508422059CAC5037
:10491000FF225832AB5489B20A03401A0003EA60FE
:10492000286107B0F0BDC0463C03002080B580B2CE
:10493000FEF710FF408800013449096849690818EA
:1049400080BDC0463C030020F8B504468589002799
:104950000126B9B2A94207D2A068FEF70BFF0128D1
:1049600000D0761C7F1CF4E7B0B2F8BDF8B50C4659
:10497000054686890027B9B2B1420AD2A868FEF777
:10498000F9FE012802D0200402D0641E7F1CF2E749
:104990003E46B0B2F8BD0000FEB502920546019059
:1049A0001A4A10465430D8CDD8C06A250020505538
:1049B00069201154682001261654FF27384612300A
:1049C000105C411E884139462231515C4B1E994191
:1049D0004900081857218900535C03433846323098
:1049E000105C441EA04114468000184350540298A5
:1049F000506601980088FEF7ADFE002803D00078CD
:104A0000032800D166555837E655FEBD3C0300200B
:104A100000B5BFB003242046FCF7BCF9B94E00280E
:104A20000FD1306C012108433064306C08402F9066
:104A30002F980807F16B0143F163F16B01402F914F
:104A40002F98B14F386801252843062128918843C3
:104A50003860B0688006400FAC4812D03168014021
:104A600031602802316801433160A948416CA94A8C
:104A70001932336813421CD1436C5B1A022BF8D9EC
:104A800024E07F21090272688A43012189035118B9
:104A9000716031680140316030688004400F9E4988
:104AA000C1409E4881609A480078002809D10420BE
:104AB00008E07F20000271688143A8030818706035
:104AC00006E00320FCF766F9002801D072B6FEE785
:104AD00027953868400721D07B200002B1688143C8
:104AE0000B20269000020818B060B0688C4908407E
:104AF000B060306887491931084252D0B068072544
:104B0000A843B060824B596C8648B2689206520F37
:104B100017D05A6C521A8242F7D942E03868012104
:104B200001432898814339607948416C7D4A3B684C
:104B300007251D40012DCFD0436C5B1A9342F6D957
:104B40002FE039684907890F0FD03968279A114338
:104B5000289A91433960596C3A682A40012A04D056
:104B60005A6C521A8242F7D91BE02803B16881437C
:104B7000B1601F46FCF7EEF9B16889093C22259225
:104B80001140694A51581F220A40D0406349886049
:104B90003878002800D104242046FCF7FBF80028D0
:104BA00001D072B6FEE71D95002033900746249091
:104BB00002213191706B08437063706B2191084042
:104BC0002A902A98706B279908437063706B08408D
:104BD0002A902A98052005073020A8623297309144
:104BE0001C902F902FAC28462146FBF76BFE319787
:104BF0004E483090402007462F901E95284621466B
:104C0000FBF760FE4A4908684A4A104008604A4972
:104C100080201F900860494C49484A4D25602290E9
:104C200060602498A0602798E0602046103014212E
:104C3000FBF7D1FA41202390205C002827993BD133
:104C400000253E48C5552FAC201D1821FBF7C3FA9F
:104C500021982F902046FCF7CBF8002800D0CAE21C
:104C6000706B219908437063706B084029902898F5
:104C70002E902D952C9512202B90C0202A902998AB
:104C800031482AA9FBF71EFE01204105F26B0A43B9
:104C9000F263F26B0A4029922999254A1169254B42
:104CA00019401161C005244908602448056841681D
:104CB000229181682491C1682422239820921F4B5D
:104CC0001A542868279A904328600F200006229AD9
:104CD00082432A61AA681D480240AA60012905D1C1
:104CE0000121C903249A0A43AA6033E021229202D7
:104CF000249B1343AB6002292CD1154931316A68DA
:104D00000A432BE00010024000200240FFC7FFFFD3
:104D100020000020E7030000006CDC0200000020FF
:104D2000FFF0FFFF881300009069000800001110D9
:104D300004E400E0FFFFFF0000E100E07401002058
:104D40004B1990000054004000040050FF7FFFFF0B
:104D5000CF0700000121C9026A688A436A60696856
:104D6000C54A0A436A60E9680140E960C34A1069BC
:104D700051690143906900020843E860D069116AF3
:104D800001432960286801212891084328600024F4
:104D900054642020239927905054146342201454C3
:104DA000505C202800D026E2B448C05D012800D124
:104DB00021E2239A2098B14988542868289B984377
:104DC00028601803296881432960286828602868BA
:104DD000184328602798A9498854CC55885C202816
:104DE00000D008E223992098A44A5054D45528684A
:104DF000289A904328602868A14B184028602868AA
:104E00001043286027989D4A50549E4DAC619E489F
:104E10009E4912C52C606860AC603594349433941C
:104E20003294083DFCF714F92598285C012800D13C
:104E3000E1E13D2193482491219A4254006842685F
:104E40009349884201D1934B1A4070239A43836857
:104E50004260884202D08D49884202D11F998B431B
:104E600083608848259944542499289A425433945D
:104E700031943094602025902F902FA8FCF794F85F
:104E8000002800D0B7E17F4800688049884214D1EB
:104E9000706B012108437063706B0840299026985D
:104EA0002E9000202D902C9021982B9008022A9073
:104EB00029982AA91E98FBF705FDF54D0C22F54807
:104EC000E1214902286022916960AC60EC602C61AC
:104ED00026926A61284618301421FBF77CF928468F
:104EE000FCF7D8FA002800D085E18421E848405C2E
:104EF000012800D17FE10A468826E54D2098A85177
:104F000028991B92A954286802681992CA431A92D8
:104F10000168114001601D99490782688A438260D7
:104F2000FFF720FA2868199901602799A95120995B
:104F3000A95128991B9AA9540168199101681A9AD4
:104F4000114001601D99490682688A438260FFF71B
:104F500009FA2868199901602799A9512099A9513E
:104F60001B996C54016802681A9B1A400260289BC6
:104F70005A07914301601B962798A8516C66C64852
:104F8000C6490160229941608460C4600461269929
:104F900041618461C461D903816308210462446270
:104FA00022918162FCF776FA002800D023E1BC4907
:104FB0002898C8700C714C718C704C70486C8C6463
:104FC000C8642F201990C0431A902030B54B002898
:104FD00005D0191850228C544C650830F7E7B04DB5
:104FE0002C72EC71AC71329428983190AE483090AC
:104FF0002F9733942FA926911E9E3046FBF762FC13
:1050000030941F982F9030462699FBF75BFC289828
:105010002873AC736C736C72EC726C65AC652C6548
:105020002C666C66AC66AC852C752C61EC73EC65FB
:105030001A9810309D4A002805D011180C660C648F
:105040000C62001DF7E796482499219A425498492A
:105050002691C187407E002827D10120904988767B
:10506000487600254D72CD720320FBF755FD0028D0
:1050700012D1FDF767FB14E00080000274010020EC
:10508000FFF0FFFFC8010020FFFF00000004004008
:10509000002C01408FFF0FFF8148457685762199CE
:1050A000C1727F48C07A012801D07D4804733F2037
:1050B000022118902191FDF7EDFB0028204612D027
:1050C000FDF740FB7648C07A012820460BD1744892
:1050D000407B0028204606D0002071494873488F45
:1050E00040BA888528986E4DAC756C752873FDF7AD
:1050F000EFFBE866286725202890285C00282646D4
:1051000061D12B2166481791405C002826465AD170
:105110000125E9026748FBF75EF8002660492898F8
:105120000E5420980E5426200E54FF200230624A5E
:10513000508055704E63614850601798085C002895
:105140003CD10120179A88546420FBF7B3FB5C48DC
:10515000162101F0E1FA00282BD10025072D1AD8DD
:105160004F20C14329434E4BD9552FA8102282709E
:105170000026467040339A705E700170032101F082
:10518000CBFA002816D180214E4801F0D9FA002828
:1051900010D16D1CE2E72FA8AF2101700126314626
:1051A00001F0BAFA002804D100253D48179945546A
:1051B00004E000263A4817994654219D2820384992
:1051C0000D5427200E54404835498E773F498C6155
:1051D000199A4A608C60C860FBF73AFF35943494A2
:1051E000339432943194309425982F902FA8FBF764
:1051F000DBFE002801D0FBF721FB34480068C169C1
:10520000229A1143C1610024254D27982C542C86E5
:1052100001272949CF706C6328484860686C214E8B
:10522000F0614878800223490818B902FAF7D3FFE1
:10523000274800901C200521482236231791FEF7AD
:105240006FFEFEF7B5FF2348C930FBF733FB222082
:1052500011902C546C86686C30621F4D281D5721AC
:105260000791890010900C91FAF7B5FF1B48286050
:105270001B4A2197384606283CD051881378032BC7
:1052800000D986E07B441B795B009F442B2B2B2E9F
:105290001402002000380140A80200200044004011
:1052A000200000209C0000200000111014010020AC
:1052B000333300009C0400200000002080004000E8
:1052C000D0690008E66900081F4E0000C8010020F0
:1052D00088700008E70300003C030020A06A000873
:1052E00000730008002902D053E0012951D8121D93
:1052F000401CC0E70020EC49012813D000220B46D7
:10530000042A0DD01D68002D41D05D68002D3ED0CF
:105310001D89002D3BD0062D39D20C33521CEFE7EE
:10532000401CE9E70020E14A032809D01168002960
:1053300081B22DD0D388002B2AD00832401CF3E74D
:105340000020DB4901280BD000220B46042A05D09F
:105350001D68002D1BD00833521CF7E7401CF1E7F5
:1053600001263046FEF72AFBFF2001465831D14A7C
:10537000565454301654FDF729FB0328219818D1B0
:10538000AD2040000021CB4A1154219811E091B288
:105390000020FF225A320123C64DAB54179A9201C6
:1053A000A9529F21490068524F20800003212954AF
:1053B00020462121C04E259170545020BF4F0690A9
:1053C0003C54307BF070B467F476B483706C3C600E
:1053D0007C60BC60F860FDF77BFAF477716C726CEE
:1053E000B74B9A18521C3B46103307C3B5A0BE4FAB
:1053F000B847BEA0B847307B002801D0C04800E0C5
:10540000C048B94DA847C0A0A847AB4FB98D2FAE33
:10541000304601F081FA3046A847B88DBE4988422F
:1054200001D0BEA000E0C4A0AF4DA847C8A0A847C7
:10543000052C0ED00A21269D2846FBF700F8F62100
:10544000414349191C9A11432AAA1155641C2690FC
:10545000EEE700200421052807D0CAB22AAB9A5CE7
:105460002FAB1A54491E401CF5E72FAE00202090A8
:10547000707130469C4CA047B8A0A047B848A047E0
:10548000B849042230460592FBF762F83046A0473F
:10549000B548A047B548A0473C21304601F03CFA4A
:1054A0003046A047B248A0474021304601F034FAC8
:1054B0003046A047AF48A0477F48807F002801D0F2
:1054C0008F4800E08F48884CA047AB48A047ABA06E
:1054D000A04779482599405C002801D1A9A000E0A7
:1054E000AB48814CA047AB48A047AB48A0477D20C4
:1054F0000B90C0000F9001200A9000021690FF2030
:105500002590000609906C48407B00283AD06A48F4
:1055100020994173C07D3F2847D007284AD00828EA
:105520007ED0052800D043E13A20634C205C000483
:1055300021463A314A781202101889784018000939
:10554000FAF75DFFFC49FAF7AAFEA27C9300FB4D37
:10555000E958E850521C1D9B1A40A274FAF797FEB6
:105560000146206EFAF742FE06462066E07B0728D9
:1055700000D988E0401C5049C873C0B2FAF73FFF19
:10558000014682E04C48407D002800D136E1FDF71D
:105590009FF94949096F401A00D54BE10020464C5C
:1055A0006075FDF795F9E06644E14349488F40BADC
:1055B0008885FAE0404AD47C601C1D990840D0746C
:1055C0003A201156C8B200043A329378C018527883
:1055D00012028018002901D509990843C117090F43
:1055E00040180011FAF700FF5E49FAF758FEA100D3
:1055F000D44A5218116A1062FAF749FE01462E4C3D
:10560000606EFAF7F3FD06466066207C072842D8F4
:10561000401C29490874C0B2FAF7F1FE01463CE08B
:10562000254A147D601C1D99084010753A201156BA
:10563000C8B200043A329378C01852781202801827
:10564000002901D509990843FAF7CEFEBE49FAF7B9
:1056500026FEA100BB4A5218116C1064FAF717FE1F
:105660000146154CA06EFAF7C1FD0646A066607CA7
:10567000072800D992E0401C0F494874C0B2FAF7DD
:10568000BEFE01468CE0239801063046FAF744FE40
:105690000949486589E0239801063046FAF73CFE3F
:1056A0000549886581E0C046286B0008006B00084A
:1056B000806A00083C030020200000209C0000209D
:1056C000E70300000D0A3D3D3D20544553545F70F3
:1056D0006F7765725F6D657465725F3320626F6F9F
:1056E00074203D3D3D0D0A005D680008494E413281
:1056F00032382073656C662D746573743A2000002F
:10570000797300088E730008494E413232382049BF
:10571000443D307800000000812200002028756E92
:1057200065787065637465642C206E6F6E2D66619C
:1057300074616C290D0A000020287374616E646125
:10574000726420307832323831290D0A00000000AE
:105750005348554E545F43414C3D00000D0A000034
:10576000707400086F12833A0E74000854750008B4
:10577000447500088B740008957300084B4B5F5507
:10578000493A2000494E4954204641494C0D0A00EF
:105790001473000814740008C973000823980106E4
:1057A0003046FAF7B9FD6949C86568480A99017336
:1057B0006648407D002821D06448807D022813D8A7
:1057C00063A1085C0321FDF765F860498C7D002822
:1057D00007D0641C5D4DAC75FDF77AF85D49401843
:1057E0002867E0B2032825D3584D209868754B20D0
:1057F000C400FDF76DF80019E8661BE0FDF768F8D6
:105800005249C96E401A15D405200321FDF742F80C
:1058100000280AD04D4C0A98A07521986075FDF7B4
:1058200057F84C494018206704E0FDF751F8323032
:105830004649C866454C666CA279209DA5712846EC
:105840003146FEF7DFF801201C9031462A46FEF76C
:10585000D9F8E06C666C301A0A2842DB3B48C66413
:1058600041782820012916D0022908D13749896CAE
:10587000711AC8290FDB354A917851700BE00B98EB
:10588000C1003046FAF7DBFD1698F330814201D8AB
:10589000282000E0182010211E9A11502B48C078B3
:1058A000002812D029480079002814D10B98C10093
:1058B0003046FAF7C4FD254842791820002A0DD059
:1058C000169AF432914206D308E0FA213046FAF7EC
:1058D000B6FD7D2901D2282000E018201E99279AC4
:1058E0000A501D48C1691948406C411A0A2960DBF9
:1058F0001949C86115482799445C601E012817D8CA
:10590000FCF7AAFF06461148007B00280BD0304662
:105910001249FAF75BFD002805D130461049FAF725
:1059200047FD002804D103200849279A885426E01F
:1059300003A10C5D6400A744CDCC4C3914010020B8
:105940003C153C221401002018B7513B20000020D8
:1059500005070800102700009C0000200000C84137
:105960000000C8C1FD48008EFD49884212D8FD499B
:10597000884200D3FB48401DFC49088616E0FB48DE
:10598000008E0F9988420AD90F990A31884209D8A6
:105990000F9808E00220F549279A885409E0FAF7A1
:1059A000FDFE06E00A38F149088680B2F049096830
:1059B000C8632FA9EF48FBF753FF002803D12FA896
:1059C0000078FAF73FFE2FA9EB48FBF749FF0028C4
:1059D00003D12FA80078FAF735FEE449087A4A6C1B
:1059E0002692C979814220D0411C1D9A1140DF4A7C
:1059F0001172E24908182821405C012808D00228C9
:105A00000BD0032811D12320D849219A0A540CE045
:105A10000220D649119A885403E0D4481199059A76
:105A2000425426982830D549086225995431D448E3
:105A30000E91405C002800D1A6E255208500D04898
:105A4000445D002C04D12920C000CD49269A0A507B
:105A5000C6481199475CC948066A51208000C84968
:105A6000269A0A5025985630095C002931D0BF4942
:105A7000289A895C002904D12B21BC4A515C012958
:105A800009D153208000BE4908582699081AF928E0
:105A90001FD9092008E0BA49209A0A542820B3499E
:105AA000085C0028229814D0AB214900B44B209CFC
:105AB0005C542B21C900259A02325A521799890148
:105AC0005C529F2149009A885A524F2189005854AC
:105AD0005AE22B200390C100A9480491405C0028A1
